{
  "_format": "hh-sol-artifact-1",
  "contractName": "SimpleSmartAccount",
  "sourceName": "contracts/SimpleSmartAccount.sol",
  "abi": [
    {
      "inputs": [
        {
          "internalType": "contract IEntryPoint",
          "name": "_entryPoint",
          "type": "address"
        }
      ],
      "stateMutability": "nonpayable",
      "type": "constructor"
    },
    {
      "anonymous": false,
      "inputs": [
        {
          "indexed": true,
          "internalType": "address",
          "name": "target",
          "type": "address"
        },
        {
          "indexed": false,
          "internalType": "uint256",
          "name": "value",
          "type": "uint256"
        },
        {
          "indexed": false,
          "internalType": "bytes",
          "name": "data",
          "type": "bytes"
        }
      ],
      "name": "Executed",
      "type": "event"
    },
    {
      "anonymous": false,
      "inputs": [
        {
          "indexed": false,
          "internalType": "address[]",
          "name": "targets",
          "type": "address[]"
        },
        {
          "indexed": false,
          "internalType": "uint256[]",
          "name": "values",
          "type": "uint256[]"
        },
        {
          "indexed": false,
          "internalType": "bytes[]",
          "name": "datas",
          "type": "bytes[]"
        }
      ],
      "name": "ExecutedBatch",
      "type": "event"
    },
    {
      "anonymous": false,
      "inputs": [
        {
          "indexed": false,
          "internalType": "uint8",
          "name": "version",
          "type": "uint8"
        }
      ],
      "name": "Initialized",
      "type": "event"
    },
    {
      "stateMutability": "payable",
      "type": "fallback"
    },
    {
      "inputs": [],
      "name": "addDeposit",
      "outputs": [],
      "stateMutability": "payable",
      "type": "function"
    },
    {
      "inputs": [],
      "name": "entryPoint",
      "outputs": [
        {
          "internalType": "contract IEntryPoint",
          "name": "",
          "type": "address"
        }
      ],
      "stateMutability": "view",
      "type": "function"
    },
    {
      "inputs": [
        {
          "internalType": "address",
          "name": "target",
          "type": "address"
        },
        {
          "internalType": "uint256",
          "name": "value",
          "type": "uint256"
        },
        {
          "internalType": "bytes",
          "name": "data",
          "type": "bytes"
        }
      ],
      "name": "execute",
      "outputs": [],
      "stateMutability": "nonpayable",
      "type": "function"
    },
    {
      "inputs": [
        {
          "internalType": "address[]",
          "name": "targets",
          "type": "address[]"
        },
        {
          "internalType": "uint256[]",
          "name": "values",
          "type": "uint256[]"
        },
        {
          "internalType": "bytes[]",
          "name": "datas",
          "type": "bytes[]"
        }
      ],
      "name": "executeBatch",
      "outputs": [],
      "stateMutability": "nonpayable",
      "type": "function"
    },
    {
      "inputs": [],
      "name": "getDeposit",
      "outputs": [
        {
          "internalType": "uint256",
          "name": "",
          "type": "uint256"
        }
      ],
      "stateMutability": "view",
      "type": "function"
    },
    {
      "inputs": [],
      "name": "getNonce",
      "outputs": [
        {
          "internalType": "uint256",
          "name": "",
          "type": "uint256"
        }
      ],
      "stateMutability": "view",
      "type": "function"
    },
    {
      "inputs": [
        {
          "internalType": "address",
          "name": "_owner",
          "type": "address"
        }
      ],
      "name": "initialize",
      "outputs": [],
      "stateMutability": "nonpayable",
      "type": "function"
    },
    {
      "inputs": [],
      "name": "owner",
      "outputs": [
        {
          "internalType": "address",
          "name": "",
          "type": "address"
        }
      ],
      "stateMutability": "view",
      "type": "function"
    },
    {
      "inputs": [
        {
          "components": [
            {
              "internalType": "address",
              "name": "sender",
              "type": "address"
            },
            {
              "internalType": "uint256",
              "name": "nonce",
              "type": "uint256"
            },
            {
              "internalType": "bytes",
              "name": "initCode",
              "type": "bytes"
            },
            {
              "internalType": "bytes",
              "name": "callData",
              "type": "bytes"
            },
            {
              "internalType": "uint256",
              "name": "callGasLimit",
              "type": "uint256"
            },
            {
              "internalType": "uint256",
              "name": "verificationGasLimit",
              "type": "uint256"
            },
            {
              "internalType": "uint256",
              "name": "preVerificationGas",
              "type": "uint256"
            },
            {
              "internalType": "uint256",
              "name": "maxFeePerGas",
              "type": "uint256"
            },
            {
              "internalType": "uint256",
              "name": "maxPriorityFeePerGas",
              "type": "uint256"
            },
            {
              "internalType": "bytes",
              "name": "paymasterAndData",
              "type": "bytes"
            },
            {
              "internalType": "bytes",
              "name": "signature",
              "type": "bytes"
            }
          ],
          "internalType": "struct UserOperation",
          "name": "userOp",
          "type": "tuple"
        },
        {
          "internalType": "bytes32",
          "name": "userOpHash",
          "type": "bytes32"
        },
        {
          "internalType": "uint256",
          "name": "missingAccountFunds",
          "type": "uint256"
        }
      ],
      "name": "validateUserOp",
      "outputs": [
        {
          "internalType": "uint256",
          "name": "validationData",
          "type": "uint256"
        }
      ],
      "stateMutability": "nonpayable",
      "type": "function"
    },
    {
      "inputs": [
        {
          "internalType": "address payable",
          "name": "withdrawAddress",
          "type": "address"
        },
        {
          "internalType": "uint256",
          "name": "amount",
          "type": "uint256"
        }
      ],
      "name": "withdrawDepositTo",
      "outputs": [],
      "stateMutability": "nonpayable",
      "type": "function"
    },
    {
      "stateMutability": "payable",
      "type": "receive"
    }
  ],
  "bytecode": "0x60a03461014357601f61108f38819003918201601f19168301916001600160401b038311848410176101485780849260209460405283398101031261014357516001600160a01b03811681036101435760805260005460ff8160081c166100ee5760ff808216036100b3575b604051610f30908161015f823960805181818160ef0152818161035701528181610399015281816104560152818161054b0152818161060c0152818161079d0152610b5b0152f35b60ff90811916176000557f7f26b83ff96e1f2b6a682f133852f6798a09c465da95921460cefb3847402498602060405160ff8152a13861006b565b60405162461bcd60e51b815260206004820152602760248201527f496e697469616c697a61626c653a20636f6e747261637420697320696e697469604482015266616c697a696e6760c81b6064820152608490fd5b600080fd5b634e487b7160e01b600052604160045260246000fdfe60806040526004361015610018575b361561001657005b005b60003560e01c80633a871cdd146100b857806347e1da2a146100b35780634a58db19146100ae5780634d44560d146100a95780638da5cb5b146100a4578063b0d691fe1461009f578063b61d27f61461009a578063c399ec8814610095578063c4d66de8146100905763d087d2880361000e5761076a565b61067d565b6105e0565b61057a565b610535565b610508565b61041b565b61038a565b6101d2565b3461019c5760031960603682011261019c576004359067ffffffffffffffff821161019c5761016090823603011261019c576044357f00000000000000000000000000000000000000000000000000000000000000006001600160a01b03163303610165576101306101489260243590600401610c61565b908061014c575b506040519081529081906020820190565b0390f35b600080808093335af15061015e610875565b5038610137565b60405162461bcd60e51b815260206004820152600f60248201526e13db9b1e48115b9d1c9e541bda5b9d608a1b6044820152606490fd5b600080fd5b9181601f8401121561019c5782359167ffffffffffffffff831161019c576020808501948460051b01011161019c57565b3461019c57606036600319011261019c5767ffffffffffffffff60043581811161019c576102049036906004016101a1565b60249291923582811161019c5761021f9036906004016101a1565b93909260443590811161019c5761023a9036906004016101a1565b9460018060a01b039461026060009680885460101c163314908115610353575b506108a5565b8185148061034a575b1561031357855b8581106102b35750917f01e4fe80df8bc3d85d062e9e85b3835bef083b2a76d829d04b27212b33f0e41b9596916102ad9360405196879687610a31565b0390a180f35b86806102c86102c3848a8a610907565b61091c565b6102d3848787610907565b356102df858d8a61095c565b91906102f060405180948193610977565b03925af16102fc610875565b901561030b5750600101610270565b602081519101fd5b60405162461bcd60e51b815260206004820152600f60248201526e098cadccee8d040dad2e6dac2e8c6d608b1b6044820152606490fd5b50868214610269565b90507f00000000000000000000000000000000000000000000000000000000000000001633143861025a565b600091031261019c57565b600080600319360112610407577f00000000000000000000000000000000000000000000000000000000000000006001600160a01b031681813b156104075760405163b760faf960e01b8152306004820152918290602490829034905af18015610402576103f6575080f35b6103ff9061081e565b80f35b610abb565b80fd5b6001600160a01b0381160361019c57565b3461019c57604036600319011261019c576004356104388161040a565b6000805490916001600160a01b039160101c821633036104d65782917f00000000000000000000000000000000000000000000000000000000000000001690813b156104d25760405163040b850f60e31b81526001600160a01b03919091166004820152602480359082015291908290604490829084905af18015610402576104bf575080f35b806104cc6103ff9261081e565b8061037f565b5050fd5b60405162461bcd60e51b815260206004820152600a60248201526927b7363c9037bbb732b960b11b6044820152606490fd5b3461019c57600036600319011261019c5760005460405160109190911c6001600160a01b03168152602090f35b3461019c57600036600319011261019c576040517f00000000000000000000000000000000000000000000000000000000000000006001600160a01b03168152602090f35b3461019c57606036600319011261019c576004356105978161040a565b6044359067ffffffffffffffff9081831161019c573660238401121561019c57826004013591821161019c57366024838501011161019c57602461001693019060243590610ac7565b3461019c57600036600319011261019c576040516370a0823160e01b81523060048201526020816024817f00000000000000000000000000000000000000000000000000000000000000006001600160a01b03165afa801561040257602091600091610650575b50604051908152f35b6106709150823d8411610676575b6106688183610837565b810190610b82565b38610647565b503d61065e565b3461019c57602036600319011261019c5760043561069a8161040a565b6106de600054916106c260ff8460081c16158094819561075c575b811561073c575b50610b91565b826106d5600160ff196000541617600055565b61072357610bf4565b6106e457005b6106f461ff001960005416600055565b604051600181527f7f26b83ff96e1f2b6a682f133852f6798a09c465da95921460cefb384740249890602090a1005b61073761010061ff00196000541617600055565b610bf4565b303b1591508161074e575b50386106bc565b6001915060ff161438610747565b600160ff82161091506106b5565b3461019c57600036600319011261019c57604051631aab3f0d60e11b8152306004820152600060248201526020816044817f00000000000000000000000000000000000000000000000000000000000000006001600160a01b03165afa801561040257610148916000916107e957506040519081529081906020820190565b610802915060203d602011610676576106688183610837565b38610137565b634e487b7160e01b600052604160045260246000fd5b67ffffffffffffffff811161083257604052565b610808565b90601f8019910116810190811067ffffffffffffffff82111761083257604052565b67ffffffffffffffff811161083257601f01601f191660200190565b3d156108a0573d9061088682610859565b916108946040519384610837565b82523d6000602084013e565b606090565b156108ac57565b60405162461bcd60e51b815260206004820152601860248201527f4f6e6c79206f776e6572206f7220456e747279506f696e7400000000000000006044820152606490fd5b634e487b7160e01b600052603260045260246000fd5b91908110156109175760051b0190565b6108f1565b356109268161040a565b90565b903590601e198136030182121561019c570180359067ffffffffffffffff821161019c5760200191813603831361019c57565b90821015610917576109739160051b810190610929565b9091565b908092918237016000815290565b908060209392818452848401376000828201840152601f01601f1916010190565b908281815260208091019360208360051b82010194846000925b8584106109d1575050505050505090565b90919293949596601f198282030184528735601e198436030181121561019c57830186810191903567ffffffffffffffff811161019c57803603831361019c57610a2088928392600195610985565b9901940194019295949391906109c0565b9195939290958060608401606085525260808301969060005b818110610a905750505081860360208301528286526001600160fb1b03831161019c576109269560209360051b80928583013701906040838284030191015201916109a6565b9091976001908935610aa18161040a565b828060a01b03168152602080910199019101919091610a4a565b6040513d6000823e3d90fd5b9160018060a01b038060005460101c1633148015610b57575b610ae9906108a5565b6000806040518785823780888101838152039086885af1610b08610875565b901561030b57507fcaf938de11c367272220bfd1d2baa99ca46665e7bc4d85f00adb51b90fe1fa9f939291610b529160405194859485526040602086015216956040840191610985565b0390a2565b50337f0000000000000000000000000000000000000000000000000000000000000000821614610ae0565b9081602091031261019c575190565b15610b9857565b60405162461bcd60e51b815260206004820152602e60248201527f496e697469616c697a61626c653a20636f6e747261637420697320616c72656160448201526d191e481a5b9a5d1a585b1a5e995960921b6064820152608490fd5b6001600160a01b03811615610c2c576000805462010000600160b01b03191660109290921b62010000600160b01b0316919091179055565b60405162461bcd60e51b815260206004820152600d60248201526c24b73b30b634b21037bbb732b960991b6044820152606490fd5b6000917f19457468657265756d205369676e6564204d6573736167653a0a3332000000008352601c52610c9d603c832091610140810190610929565b610ca981939293610859565b92610cb76040519485610837565b8184523682820111610d065791846020838694610cde9683610ce699013784010152610d0a565b919091610d5e565b815460101c6001600160a01b03908116911603610d005790565b50600190565b8480fd5b906041815114600014610d3457610973916020820151906060604084015193015160001a90610e7e565b5050600090600290565b60051115610d4857565b634e487b7160e01b600052602160045260246000fd5b610d6781610d3e565b80610d6f5750565b610d7881610d3e565b60018103610dc55760405162461bcd60e51b815260206004820152601860248201527f45434453413a20696e76616c6964207369676e617475726500000000000000006044820152606490fd5b610dce81610d3e565b60028103610e1b5760405162461bcd60e51b815260206004820152601f60248201527f45434453413a20696e76616c6964207369676e6174757265206c656e677468006044820152606490fd5b80610e27600392610d3e565b14610e2e57565b60405162461bcd60e51b815260206004820152602260248201527f45434453413a20696e76616c6964207369676e6174757265202773272076616c604482015261756560f01b6064820152608490fd5b9291907f7fffffffffffffffffffffffffffffff5d576e7357a4501ddfe92f46681b20a08311610eee5791608094939160ff602094604051948552168484015260408301526060820152600093849182805260015afa156104025781516001600160a01b03811615610d00579190565b5050505060009060039056fea264697066735822122022045ba6ff181a954837bbb07b79d7d39751705ca70f5e11607b09299ebffe0b64736f6c63430008170033",
  "linkReferences": {},
  "deployedLinkReferences": {}
}