{
  "_format": "hh-sol-artifact-1",
  "contractName": "SponsorPaymaster",
  "sourceName": "contracts/SponsorPaymaster.sol",
  "abi": [
    {
      "inputs": [
        {
          "internalType": "contract IEntryPoint",
          "name": "_entryPoint",
          "type": "address"
        },
        {
          "internalType": "uint256",
          "name": "_dailyLimit",
          "type": "uint256"
        }
      ],
      "stateMutability": "nonpayable",
      "type": "constructor"
    },
    {
      "anonymous": false,
      "inputs": [
        {
          "indexed": false,
          "internalType": "uint256",
          "name": "newLimit",
          "type": "uint256"
        }
      ],
      "name": "DailyLimitUpdated",
      "type": "event"
    },
    {
      "anonymous": false,
      "inputs": [
        {
          "indexed": true,
          "internalType": "address",
          "name": "account",
          "type": "address"
        },
        {
          "indexed": false,
          "internalType": "uint256",
          "name": "actualGasCost",
          "type": "uint256"
        },
        {
          "indexed": false,
          "internalType": "uint256",
          "name": "dailySpentAfter",
          "type": "uint256"
        }
      ],
      "name": "GasSponsored",
      "type": "event"
    },
    {
      "anonymous": false,
      "inputs": [
        {
          "indexed": true,
          "internalType": "address",
          "name": "previousOwner",
          "type": "address"
        },
        {
          "indexed": true,
          "internalType": "address",
          "name": "newOwner",
          "type": "address"
        }
      ],
      "name": "OwnershipTransferred",
      "type": "event"
    },
    {
      "anonymous": false,
      "inputs": [
        {
          "indexed": true,
          "internalType": "address",
          "name": "account",
          "type": "address"
        },
        {
          "indexed": false,
          "internalType": "bool",
          "name": "whitelisted",
          "type": "bool"
        }
      ],
      "name": "WhitelistUpdated",
      "type": "event"
    },
    {
      "inputs": [
        {
          "internalType": "uint32",
          "name": "unstakeDelaySec",
          "type": "uint32"
        }
      ],
      "name": "addStake",
      "outputs": [],
      "stateMutability": "payable",
      "type": "function"
    },
    {
      "inputs": [],
      "name": "dailyLimit",
      "outputs": [
        {
          "internalType": "uint256",
          "name": "",
          "type": "uint256"
        }
      ],
      "stateMutability": "view",
      "type": "function"
    },
    {
      "inputs": [
        {
          "internalType": "address",
          "name": "",
          "type": "address"
        }
      ],
      "name": "dailySpent",
      "outputs": [
        {
          "internalType": "uint256",
          "name": "",
          "type": "uint256"
        }
      ],
      "stateMutability": "view",
      "type": "function"
    },
    {
      "inputs": [],
      "name": "deposit",
      "outputs": [],
      "stateMutability": "payable",
      "type": "function"
    },
    {
      "inputs": [],
      "name": "entryPoint",
      "outputs": [
        {
          "internalType": "contract IEntryPoint",
          "name": "",
          "type": "address"
        }
      ],
      "stateMutability": "view",
      "type": "function"
    },
    {
      "inputs": [],
      "name": "getCurrentDay",
      "outputs": [
        {
          "internalType": "uint256",
          "name": "",
          "type": "uint256"
        }
      ],
      "stateMutability": "view",
      "type": "function"
    },
    {
      "inputs": [],
      "name": "getDeposit",
      "outputs": [
        {
          "internalType": "uint256",
          "name": "",
          "type": "uint256"
        }
      ],
      "stateMutability": "view",
      "type": "function"
    },
    {
      "inputs": [
        {
          "internalType": "address",
          "name": "account",
          "type": "address"
        }
      ],
      "name": "getRemainingDailyAllowance",
      "outputs": [
        {
          "internalType": "uint256",
          "name": "",
          "type": "uint256"
        }
      ],
      "stateMutability": "view",
      "type": "function"
    },
    {
      "inputs": [
        {
          "internalType": "address",
          "name": "",
          "type": "address"
        }
      ],
      "name": "lastResetDay",
      "outputs": [
        {
          "internalType": "uint256",
          "name": "",
          "type": "uint256"
        }
      ],
      "stateMutability": "view",
      "type": "function"
    },
    {
      "inputs": [],
      "name": "owner",
      "outputs": [
        {
          "internalType": "address",
          "name": "",
          "type": "address"
        }
      ],
      "stateMutability": "view",
      "type": "function"
    },
    {
      "inputs": [
        {
          "internalType": "enum IPaymaster.PostOpMode",
          "name": "mode",
          "type": "uint8"
        },
        {
          "internalType": "bytes",
          "name": "context",
          "type": "bytes"
        },
        {
          "internalType": "uint256",
          "name": "actualGasCost",
          "type": "uint256"
        }
      ],
      "name": "postOp",
      "outputs": [],
      "stateMutability": "nonpayable",
      "type": "function"
    },
    {
      "inputs": [],
      "name": "renounceOwnership",
      "outputs": [],
      "stateMutability": "nonpayable",
      "type": "function"
    },
    {
      "inputs": [
        {
          "internalType": "uint256",
          "name": "_dailyLimit",
          "type": "uint256"
        }
      ],
      "name": "setDailyLimit",
      "outputs": [],
      "stateMutability": "nonpayable",
      "type": "function"
    },
    {
      "inputs": [
        {
          "internalType": "address",
          "name": "account",
          "type": "address"
        },
        {
          "internalType": "bool",
          "name": "whitelisted",
          "type": "bool"
        }
      ],
      "name": "setWhitelisted",
      "outputs": [],
      "stateMutability": "nonpayable",
      "type": "function"
    },
    {
      "inputs": [
        {
          "internalType": "address[]",
          "name": "accounts",
          "type": "address[]"
        },
        {
          "internalType": "bool",
          "name": "whitelisted",
          "type": "bool"
        }
      ],
      "name": "setWhitelistedBatch",
      "outputs": [],
      "stateMutability": "nonpayable",
      "type": "function"
    },
    {
      "inputs": [
        {
          "internalType": "address",
          "name": "newOwner",
          "type": "address"
        }
      ],
      "name": "transferOwnership",
      "outputs": [],
      "stateMutability": "nonpayable",
      "type": "function"
    },
    {
      "inputs": [],
      "name": "unlockStake",
      "outputs": [],
      "stateMutability": "nonpayable",
      "type": "function"
    },
    {
      "inputs": [
        {
          "components": [
            {
              "internalType": "address",
              "name": "sender",
              "type": "address"
            },
            {
              "internalType": "uint256",
              "name": "nonce",
              "type": "uint256"
            },
            {
              "internalType": "bytes",
              "name": "initCode",
              "type": "bytes"
            },
            {
              "internalType": "bytes",
              "name": "callData",
              "type": "bytes"
            },
            {
              "internalType": "uint256",
              "name": "callGasLimit",
              "type": "uint256"
            },
            {
              "internalType": "uint256",
              "name": "verificationGasLimit",
              "type": "uint256"
            },
            {
              "internalType": "uint256",
              "name": "preVerificationGas",
              "type": "uint256"
            },
            {
              "internalType": "uint256",
              "name": "maxFeePerGas",
              "type": "uint256"
            },
            {
              "internalType": "uint256",
              "name": "maxPriorityFeePerGas",
              "type": "uint256"
            },
            {
              "internalType": "bytes",
              "name": "paymasterAndData",
              "type": "bytes"
            },
            {
              "internalType": "bytes",
              "name": "signature",
              "type": "bytes"
            }
          ],
          "internalType": "struct UserOperation",
          "name": "userOp",
          "type": "tuple"
        },
        {
          "internalType": "bytes32",
          "name": "userOpHash",
          "type": "bytes32"
        },
        {
          "internalType": "uint256",
          "name": "maxCost",
          "type": "uint256"
        }
      ],
      "name": "validatePaymasterUserOp",
      "outputs": [
        {
          "internalType": "bytes",
          "name": "context",
          "type": "bytes"
        },
        {
          "internalType": "uint256",
          "name": "validationData",
          "type": "uint256"
        }
      ],
      "stateMutability": "nonpayable",
      "type": "function"
    },
    {
      "inputs": [
        {
          "internalType": "address",
          "name": "",
          "type": "address"
        }
      ],
      "name": "whitelistedAccounts",
      "outputs": [
        {
          "internalType": "bool",
          "name": "",
          "type": "bool"
        }
      ],
      "stateMutability": "view",
      "type": "function"
    },
    {
      "inputs": [
        {
          "internalType": "address payable",
          "name": "withdrawAddress",
          "type": "address"
        }
      ],
      "name": "withdrawStake",
      "outputs": [],
      "stateMutability": "nonpayable",
      "type": "function"
    },
    {
      "inputs": [
        {
          "internalType": "address payable",
          "name": "withdrawAddress",
          "type": "address"
        },
        {
          "internalType": "uint256",
          "name": "amount",
          "type": "uint256"
        }
      ],
      "name": "withdrawTo",
      "outputs": [],
      "stateMutability": "nonpayable",
      "type": "function"
    }
  ],
  "bytecode": "0x60a0346100e057601f610e4b38819003918201601f19168301916001600160401b038311848410176100e55780849260409485528339810103126100e05780516001600160a01b039182821682036100e05760200151906000543360018060a01b0319821617600055604051933391167f8be0079c531659141344cd1fd0a4f28419497f9722a3daafe3b4186f6b6457e0600080a3608052600155610d4f90816100fc82396080518181816103b7015281816104610152818161052e015281816105a40152818161065d01528181610a2401528181610ad80152610c890152f35b600080fd5b634e487b7160e01b600052604160045260246000fdfe6040608081526004908136101561001557600080fd5b600091823560e01c9081630396cb6014610aae5781631b583f9014610a8157838263205c2878146109f7575081632f6707e91461090457816333b9baa5146108ce5781633e6968b6146108ae57816367eeba0c1461088f578163715018a6146108355781638da5cb5b1461080d5781639281aa0b14610792578163a9a234091461068c578163b0d691fe14610648578163b20d30a9146105fa57838263bb9fe6bf14610587578263c23a5cea1461050057508163c399ec881461043557838263d0e30db0146103a757508163f2fde38b146102da578163f465c77e1461018757508063f6a6830f1461014a5763ffc8ada61461011057600080fd5b346101465760203660031901126101465760209181906001600160a01b03610136610b3e565b1681526003845220549051908152f35b5080fd5b50346101465760203660031901126101465760209160ff9082906001600160a01b03610174610b3e565b1681526002855220541690519015158152f35b8391503461014657600319916060368401126102d75781359367ffffffffffffffff938486116102d35761016090863603011261014657604435946101ca610c87565b6001600160a01b03906101de908501610c1b565b169283835260209560038752828420548288528162015180420485872054106102cb575b61020b91610cf6565b6001541061029257825194878601528285015281845260608401948486109086111761027d575083815283528151908160a0840152805b828110610269575082820160c0018190526080830152601f01601f19168101036060019150f35b808691850160c08382015191015201610242565b604190634e487b7160e01b6000525260246000fd5b5085606492519162461bcd60e51b8352820152601460248201527311185a5b1e481b1a5b5a5d08195e18d95959195960621b6044820152fd5b859150610202565b8280fd5b80fd5b9050346102d35760203660031901126102d3576102f5610b3e565b906102fe610c2f565b6001600160a01b03918216928315610355575050600054826bffffffffffffffffffffffff60a01b821617600055167f8be0079c531659141344cd1fd0a4f28419497f9722a3daafe3b4186f6b6457e0600080a380f35b906020608492519162461bcd60e51b8352820152602660248201527f4f776e61626c653a206e6577206f776e657220697320746865207a65726f206160448201526564647265737360d01b6064820152fd5b80918482600319360112610431577f00000000000000000000000000000000000000000000000000000000000000006001600160a01b031691823b1561042c578390602483518095819363b760faf960e01b8352309083015234905af190811561042357506104135750f35b61041c90610b63565b6102d75780f35b513d84823e3d90fd5b505050fd5b5050fd5b919050346102d357826003193601126102d35780516370a0823160e01b815230838201526020816024817f00000000000000000000000000000000000000000000000000000000000000006001600160a01b03165afa9283156104f65784936104a3575b6020848451908152f35b909192506020903d6020116104ee575b601f8201601f191683019067ffffffffffffffff82118483101761027d575060209183918552810103126102d3576020925051903880610499565b3d91506104b3565b82513d86823e3d90fd5b809184346104315760203660031901126104315761051c610b3e565b610524610c2f565b6001600160a01b037f00000000000000000000000000000000000000000000000000000000000000008116803b15610583578592836024928651978895869463611d2e7560e11b865216908401525af190811561042357506104135750f35b8580fd5b809184346104315782600319360112610431576105a2610c2f565b7f00000000000000000000000000000000000000000000000000000000000000006001600160a01b031691823b1561042c57815163bb9fe6bf60e01b81529284918491829084905af190811561042357506104135750f35b9050346102d35760203660031901126102d3577f6cd8635c4285386b9de2e59a4c1eaf32ad41f28ae64c308280217d7af51464e091602091359061063c610c2f565b8160015551908152a180f35b505034610146578160031936011261014657517f00000000000000000000000000000000000000000000000000000000000000006001600160a01b03168152602090f35b9050346102d35760603660031901126102d3576003813510156102d3576024359167ffffffffffffffff80841161078e573660238501121561078e578383013590811161078e5783019236602485011161078e578181604435956106ee610c87565b031261078957602401359260018060a01b038416809403610789577fb3d8da13e2eec10930982ae94cc39cd56a1e686b864a50f632765647bdfe622b92620151804204858752602091808352818589205410610773575b505060038152828620610759838254610cf6565b90558486526003815282862054908351928352820152a280f35b6003835287858120558252838720553880610745565b600080fd5b8480fd5b5050346101465780600319360112610146577ff93f9a76c1bf3444d22400a00cb9fe990e6abe9dbb333fda48859cfee864543d60206107cf610b3e565b6107d7610b54565b906107e0610c2f565b6001600160a01b031680865260028352848620805460ff191660ff8415151617905593519015158152a280f35b505034610146578160031936011261014657905490516001600160a01b039091168152602090f35b83346102d757806003193601126102d75761084e610c2f565b600080546001600160a01b0319811682556001600160a01b03167f8be0079c531659141344cd1fd0a4f28419497f9722a3daafe3b4186f6b6457e08280a380f35b5050346101465781600319360112610146576020906001549051908152f35b505034610146578160031936011261014657602090516201518042048152f35b9050346102d35760203660031901126102d35760209282916001600160a01b036108f6610b3e565b168252845220549051908152f35b919050346102d357806003193601126102d357813567ffffffffffffffff9283821161078e573660238301121561078e578101359283116109f3576024810190602436918560051b0101116109f3579161095c610b54565b610964610c2f565b80151591855b818110610975578680f35b6001906001600160a01b038061099461098f84878c610bf5565b610c1b565b1689527ff93f9a76c1bf3444d22400a00cb9fe990e6abe9dbb333fda48859cfee864543d602091600283526109d7878a8d209060ff801983541691151516179055565b6109e561098f85888d610bf5565b16918851888152a20161096a565b8380fd5b80918434610431578060031936011261043157610a12610b3e565b610a1a610c2f565b6001600160a01b037f00000000000000000000000000000000000000000000000000000000000000008116803b15610583578592836044928651978895869463040b850f60e31b8652169084015260243560248401525af190811561042357506104135750f35b50503461014657602036600319011261014657602090610aa7610aa2610b3e565b610b8d565b9051908152f35b91905060203660031901126102d35782823563ffffffff811680910361014657610ad6610c2f565b7f00000000000000000000000000000000000000000000000000000000000000006001600160a01b031693843b156102d35760249084519586938492621cb65b60e51b845283015234905af19081156104235750610b32575080f35b610b3b90610b63565b80f35b600435906001600160a01b038216820361078957565b60243590811515820361078957565b67ffffffffffffffff8111610b7757604052565b634e487b7160e01b600052604160045260246000fd5b6001600160a01b031660009081526004602052604081205462015180420411610bee5760036020526040812054906001549182811015610be8578203918211610bd4575090565b634e487b7160e01b81526011600452602490fd5b50905090565b5060015490565b9190811015610c055760051b0190565b634e487b7160e01b600052603260045260246000fd5b356001600160a01b03811681036107895790565b6000546001600160a01b03163303610c4357565b606460405162461bcd60e51b815260206004820152602060248201527f4f776e61626c653a2063616c6c6572206973206e6f7420746865206f776e65726044820152fd5b7f00000000000000000000000000000000000000000000000000000000000000006001600160a01b03163303610cb957565b60405162461bcd60e51b815260206004820152601560248201527414d95b99195c881b9bdd08115b9d1c9e541bda5b9d605a1b6044820152606490fd5b91908201809211610d0357565b634e487b7160e01b600052601160045260246000fdfea264697066735822122018bb226e66b8e0f493bc6fd90826a841c230e651d9ccd6a32d254e1afa9ed2ce64736f6c63430008170033",
  "linkReferences": {},
  "deployedLinkReferences": {}
}