{"contracts/SponsorPaymaster.sol":{"SponsorPaymaster":{"abi":[{"inputs":[{"internalType":"contract IEntryPoint","name":"_entryPoint","type":"address"},{"internalType":"uint256","name":"_dailyLimit","type":"uint256"}],"stateMutability":"nonpayable","type":"constructor"},{"anonymous":false,"inputs":[{"indexed":false,"internalType":"uint256","name":"newLimit","type":"uint256"}],"name":"DailyLimitUpdated","type":"event"},{"anonymous":false,"inputs":[{"indexed":true,"internalType":"address","name":"account","type":"address"},{"indexed":false,"internalType":"uint256","name":"actualGasCost","type":"uint256"},{"indexed":false,"internalType":"uint256","name":"dailySpentAfter","type":"uint256"}],"name":"GasSponsored","type":"event"},{"anonymous":false,"inputs":[{"indexed":true,"internalType":"address","name":"previousOwner","type":"address"},{"indexed":true,"internalType":"address","name":"newOwner","type":"address"}],"name":"OwnershipTransferred","type":"event"},{"anonymous":false,"inputs":[{"indexed":true,"internalType":"address","name":"account","type":"address"},{"indexed":false,"internalType":"bool","name":"whitelisted","type":"bool"}],"name":"WhitelistUpdated","type":"event"},{"inputs":[{"internalType":"uint32","name":"unstakeDelaySec","type":"uint32"}],"name":"addStake","outputs":[],"stateMutability":"payable","type":"function"},{"inputs":[],"name":"dailyLimit","outputs":[{"internalType":"uint256","name":"","type":"uint256"}],"stateMutability":"view","type":"function"},{"inputs":[{"internalType":"address","name":"","type":"address"}],"name":"dailySpent","outputs":[{"internalType":"uint256","name":"","type":"uint256"}],"stateMutability":"view","type":"function"},{"inputs":[],"name":"deposit","outputs":[],"stateMutability":"payable","type":"function"},{"inputs":[],"name":"entryPoint","outputs":[{"internalType":"contract IEntryPoint","name":"","type":"address"}],"stateMutability":"view","type":"function"},{"inputs":[],"name":"getCurrentDay","outputs":[{"internalType":"uint256","name":"","type":"uint256"}],"stateMutability":"view","type":"function"},{"inputs":[],"name":"getDeposit","outputs":[{"internalType":"uint256","name":"","type":"uint256"}],"stateMutability":"view","type":"function"},{"inputs":[{"internalType":"address","name":"account","type":"address"}],"name":"getRemainingDailyAllowance","outputs":[{"internalType":"uint256","name":"","type":"uint256"}],"stateMutability":"view","type":"function"},{"inputs":[{"internalType":"address","name":"","type":"address"}],"name":"lastResetDay","outputs":[{"internalType":"uint256","name":"","type":"uint256"}],"stateMutability":"view","type":"function"},{"inputs":[],"name":"owner","outputs":[{"internalType":"address","name":"","type":"address"}],"stateMutability":"view","type":"function"},{"inputs":[{"internalType":"enum IPaymaster.PostOpMode","name":"mode","type":"uint8"},{"internalType":"bytes","name":"context","type":"bytes"},{"internalType":"uint256","name":"actualGasCost","type":"uint256"}],"name":"postOp","outputs":[],"stateMutability":"nonpayable","type":"function"},{"inputs":[],"name":"renounceOwnership","outputs":[],"stateMutability":"nonpayable","type":"function"},{"inputs":[{"internalType":"uint256","name":"_dailyLimit","type":"uint256"}],"name":"setDailyLimit","outputs":[],"stateMutability":"nonpayable","type":"function"},{"inputs":[{"internalType":"address","name":"account","type":"address"},{"internalType":"bool","name":"whitelisted","type":"bool"}],"name":"setWhitelisted","outputs":[],"stateMutability":"nonpayable","type":"function"},{"inputs":[{"internalType":"address[]","name":"accounts","type":"address[]"},{"internalType":"bool","name":"whitelisted","type":"bool"}],"name":"setWhitelistedBatch","outputs":[],"stateMutability":"nonpayable","type":"function"},{"inputs":[{"internalType":"address","name":"newOwner","type":"address"}],"name":"transferOwnership","outputs":[],"stateMutability":"nonpayable","type":"function"},{"inputs":[],"name":"unlockStake","outputs":[],"stateMutability":"nonpayable","type":"function"},{"inputs":[{"components":[{"internalType":"address","name":"sender","type":"address"},{"internalType":"uint256","name":"nonce","type":"uint256"},{"internalType":"bytes","name":"initCode","type":"bytes"},{"internalType":"bytes","name":"callData","type":"bytes"},{"internalType":"uint256","name":"callGasLimit","type":"uint256"},{"internalType":"uint256","name":"verificationGasLimit","type":"uint256"},{"internalType":"uint256","name":"preVerificationGas","type":"uint256"},{"internalType":"uint256","name":"maxFeePerGas","type":"uint256"},{"internalType":"uint256","name":"maxPriorityFeePerGas","type":"uint256"},{"internalType":"bytes","name":"paymasterAndData","type":"bytes"},{"internalType":"bytes","name":"signature","type":"bytes"}],"internalType":"struct UserOperation","name":"userOp","type":"tuple"},{"internalType":"bytes32","name":"userOpHash","type":"bytes32"},{"internalType":"uint256","name":"maxCost","type":"uint256"}],"name":"validatePaymasterUserOp","outputs":[{"internalType":"bytes","name":"context","type":"bytes"},{"internalType":"uint256","name":"validationData","type":"uint256"}],"stateMutability":"nonpayable","type":"function"},{"inputs":[{"internalType":"address","name":"","type":"address"}],"name":"whitelistedAccounts","outputs":[{"internalType":"bool","name":"","type":"bool"}],"stateMutability":"view","type":"function"},{"inputs":[{"internalType":"address payable","name":"withdrawAddress","type":"address"}],"name":"withdrawStake","outputs":[],"stateMutability":"nonpayable","type":"function"},{"inputs":[{"internalType":"address payable","name":"withdrawAddress","type":"address"},{"internalType":"uint256","name":"amount","type":"uint256"}],"name":"withdrawTo","outputs":[],"stateMutability":"nonpayable","type":"function"}],"evm":{"bytecode":{"linkReferences":{},"object":"60a0346100e057601f610e4b38819003918201601f19168301916001600160401b038311848410176100e55780849260409485528339810103126100e05780516001600160a01b039182821682036100e05760200151906000543360018060a01b0319821617600055604051933391167f8be0079c531659141344cd1fd0a4f28419497f9722a3daafe3b4186f6b6457e0600080a3608052600155610d4f90816100fc82396080518181816103b7015281816104610152818161052e015281816105a40152818161065d01528181610a2401528181610ad80152610c890152f35b600080fd5b634e487b7160e01b600052604160045260246000fdfe6040608081526004908136101561001557600080fd5b600091823560e01c9081630396cb6014610aae5781631b583f9014610a8157838263205c2878146109f7575081632f6707e91461090457816333b9baa5146108ce5781633e6968b6146108ae57816367eeba0c1461088f578163715018a6146108355781638da5cb5b1461080d5781639281aa0b14610792578163a9a234091461068c578163b0d691fe14610648578163b20d30a9146105fa57838263bb9fe6bf14610587578263c23a5cea1461050057508163c399ec881461043557838263d0e30db0146103a757508163f2fde38b146102da578163f465c77e1461018757508063f6a6830f1461014a5763ffc8ada61461011057600080fd5b346101465760203660031901126101465760209181906001600160a01b03610136610b3e565b1681526003845220549051908152f35b5080fd5b50346101465760203660031901126101465760209160ff9082906001600160a01b03610174610b3e565b1681526002855220541690519015158152f35b8391503461014657600319916060368401126102d75781359367ffffffffffffffff938486116102d35761016090863603011261014657604435946101ca610c87565b6001600160a01b03906101de908501610c1b565b169283835260209560038752828420548288528162015180420485872054106102cb575b61020b91610cf6565b6001541061029257825194878601528285015281845260608401948486109086111761027d575083815283528151908160a0840152805b828110610269575082820160c0018190526080830152601f01601f19168101036060019150f35b808691850160c08382015191015201610242565b604190634e487b7160e01b6000525260246000fd5b5085606492519162461bcd60e51b8352820152601460248201527311185a5b1e481b1a5b5a5d08195e18d95959195960621b6044820152fd5b859150610202565b8280fd5b80fd5b9050346102d35760203660031901126102d3576102f5610b3e565b906102fe610c2f565b6001600160a01b03918216928315610355575050600054826bffffffffffffffffffffffff60a01b821617600055167f8be0079c531659141344cd1fd0a4f28419497f9722a3daafe3b4186f6b6457e0600080a380f35b906020608492519162461bcd60e51b8352820152602660248201527f4f776e61626c653a206e6577206f776e657220697320746865207a65726f206160448201526564647265737360d01b6064820152fd5b80918482600319360112610431577f00000000000000000000000000000000000000000000000000000000000000006001600160a01b031691823b1561042c578390602483518095819363b760faf960e01b8352309083015234905af190811561042357506104135750f35b61041c90610b63565b6102d75780f35b513d84823e3d90fd5b505050fd5b5050fd5b919050346102d357826003193601126102d35780516370a0823160e01b815230838201526020816024817f00000000000000000000000000000000000000000000000000000000000000006001600160a01b03165afa9283156104f65784936104a3575b6020848451908152f35b909192506020903d6020116104ee575b601f8201601f191683019067ffffffffffffffff82118483101761027d575060209183918552810103126102d3576020925051903880610499565b3d91506104b3565b82513d86823e3d90fd5b809184346104315760203660031901126104315761051c610b3e565b610524610c2f565b6001600160a01b037f00000000000000000000000000000000000000000000000000000000000000008116803b15610583578592836024928651978895869463611d2e7560e11b865216908401525af190811561042357506104135750f35b8580fd5b809184346104315782600319360112610431576105a2610c2f565b7f00000000000000000000000000000000000000000000000000000000000000006001600160a01b031691823b1561042c57815163bb9fe6bf60e01b81529284918491829084905af190811561042357506104135750f35b9050346102d35760203660031901126102d3577f6cd8635c4285386b9de2e59a4c1eaf32ad41f28ae64c308280217d7af51464e091602091359061063c610c2f565b8160015551908152a180f35b505034610146578160031936011261014657517f00000000000000000000000000000000000000000000000000000000000000006001600160a01b03168152602090f35b9050346102d35760603660031901126102d3576003813510156102d3576024359167ffffffffffffffff80841161078e573660238501121561078e578383013590811161078e5783019236602485011161078e578181604435956106ee610c87565b031261078957602401359260018060a01b038416809403610789577fb3d8da13e2eec10930982ae94cc39cd56a1e686b864a50f632765647bdfe622b92620151804204858752602091808352818589205410610773575b505060038152828620610759838254610cf6565b90558486526003815282862054908351928352820152a280f35b6003835287858120558252838720553880610745565b600080fd5b8480fd5b5050346101465780600319360112610146577ff93f9a76c1bf3444d22400a00cb9fe990e6abe9dbb333fda48859cfee864543d60206107cf610b3e565b6107d7610b54565b906107e0610c2f565b6001600160a01b031680865260028352848620805460ff191660ff8415151617905593519015158152a280f35b505034610146578160031936011261014657905490516001600160a01b039091168152602090f35b83346102d757806003193601126102d75761084e610c2f565b600080546001600160a01b0319811682556001600160a01b03167f8be0079c531659141344cd1fd0a4f28419497f9722a3daafe3b4186f6b6457e08280a380f35b5050346101465781600319360112610146576020906001549051908152f35b505034610146578160031936011261014657602090516201518042048152f35b9050346102d35760203660031901126102d35760209282916001600160a01b036108f6610b3e565b168252845220549051908152f35b919050346102d357806003193601126102d357813567ffffffffffffffff9283821161078e573660238301121561078e578101359283116109f3576024810190602436918560051b0101116109f3579161095c610b54565b610964610c2f565b80151591855b818110610975578680f35b6001906001600160a01b038061099461098f84878c610bf5565b610c1b565b1689527ff93f9a76c1bf3444d22400a00cb9fe990e6abe9dbb333fda48859cfee864543d602091600283526109d7878a8d209060ff801983541691151516179055565b6109e561098f85888d610bf5565b16918851888152a20161096a565b8380fd5b80918434610431578060031936011261043157610a12610b3e565b610a1a610c2f565b6001600160a01b037f00000000000000000000000000000000000000000000000000000000000000008116803b15610583578592836044928651978895869463040b850f60e31b8652169084015260243560248401525af190811561042357506104135750f35b50503461014657602036600319011261014657602090610aa7610aa2610b3e565b610b8d565b9051908152f35b91905060203660031901126102d35782823563ffffffff811680910361014657610ad6610c2f565b7f00000000000000000000000000000000000000000000000000000000000000006001600160a01b031693843b156102d35760249084519586938492621cb65b60e51b845283015234905af19081156104235750610b32575080f35b610b3b90610b63565b80f35b600435906001600160a01b038216820361078957565b60243590811515820361078957565b67ffffffffffffffff8111610b7757604052565b634e487b7160e01b600052604160045260246000fd5b6001600160a01b031660009081526004602052604081205462015180420411610bee5760036020526040812054906001549182811015610be8578203918211610bd4575090565b634e487b7160e01b81526011600452602490fd5b50905090565b5060015490565b9190811015610c055760051b0190565b634e487b7160e01b600052603260045260246000fd5b356001600160a01b03811681036107895790565b6000546001600160a01b03163303610c4357565b606460405162461bcd60e51b815260206004820152602060248201527f4f776e61626c653a2063616c6c6572206973206e6f7420746865206f776e65726044820152fd5b7f00000000000000000000000000000000000000000000000000000000000000006001600160a01b03163303610cb957565b60405162461bcd60e51b815260206004820152601560248201527414d95b99195c881b9bdd08115b9d1c9e541bda5b9d605a1b6044820152606490fd5b91908201809211610d0357565b634e487b7160e01b600052601160045260246000fdfea264697066735822122018bb226e66b8e0f493bc6fd90826a841c230e651d9ccd6a32d254e1afa9ed2ce64736f6c63430008170033","opcodes":"PUSH1 0xA0 CALLVALUE PUSH2 0xE0 JUMPI PUSH1 0x1F PUSH2 0xE4B CODESIZE DUP2 SWAP1 SUB SWAP2 DUP3 ADD PUSH1 0x1F NOT AND DUP4 ADD SWAP2 PUSH1 0x1 PUSH1 0x1 PUSH1 0x40 SHL SUB DUP4 GT DUP5 DUP5 LT OR PUSH2 0xE5 JUMPI DUP1 DUP5 SWAP3 PUSH1 0x40 SWAP5 DUP6 MSTORE DUP4 CODECOPY DUP2 ADD SUB SLT PUSH2 0xE0 JUMPI DUP1 MLOAD PUSH1 0x1 PUSH1 0x1 PUSH1 0xA0 SHL SUB SWAP2 DUP3 DUP3 AND DUP3 SUB PUSH2 0xE0 JUMPI PUSH1 0x20 ADD MLOAD SWAP1 PUSH1 0x0 SLOAD CALLER PUSH1 0x1 DUP1 PUSH1 0xA0 SHL SUB NOT DUP3 AND OR PUSH1 0x0 SSTORE PUSH1 0x40 MLOAD SWAP4 CALLER SWAP2 AND PUSH32 0x8BE0079C531659141344CD1FD0A4F28419497F9722A3DAAFE3B4186F6B6457E0 PUSH1 0x0 DUP1 LOG3 PUSH1 0x80 MSTORE PUSH1 0x1 SSTORE PUSH2 0xD4F SWAP1 DUP2 PUSH2 0xFC DUP3 CODECOPY PUSH1 0x80 MLOAD DUP2 DUP2 DUP2 PUSH2 0x3B7 ADD MSTORE DUP2 DUP2 PUSH2 0x461 ADD MSTORE DUP2 DUP2 PUSH2 0x52E ADD MSTORE DUP2 DUP2 PUSH2 0x5A4 ADD MSTORE DUP2 DUP2 PUSH2 0x65D ADD MSTORE DUP2 DUP2 PUSH2 0xA24 ADD MSTORE DUP2 DUP2 PUSH2 0xAD8 ADD MSTORE PUSH2 0xC89 ADD MSTORE RETURN JUMPDEST PUSH1 0x0 DUP1 REVERT JUMPDEST PUSH4 0x4E487B71 PUSH1 0xE0 SHL PUSH1 0x0 MSTORE PUSH1 0x41 PUSH1 0x4 MSTORE PUSH1 0x24 PUSH1 0x0 REVERT INVALID PUSH1 0x40 PUSH1 0x80 DUP2 MSTORE PUSH1 0x4 SWAP1 DUP2 CALLDATASIZE LT ISZERO PUSH2 0x15 JUMPI PUSH1 0x0 DUP1 REVERT JUMPDEST PUSH1 0x0 SWAP2 DUP3 CALLDATALOAD PUSH1 0xE0 SHR SWAP1 DUP2 PUSH4 0x396CB60 EQ PUSH2 0xAAE JUMPI DUP2 PUSH4 0x1B583F90 EQ PUSH2 0xA81 JUMPI DUP4 DUP3 PUSH4 0x205C2878 EQ PUSH2 0x9F7 JUMPI POP DUP2 PUSH4 0x2F6707E9 EQ PUSH2 0x904 JUMPI DUP2 PUSH4 0x33B9BAA5 EQ PUSH2 0x8CE JUMPI DUP2 PUSH4 0x3E6968B6 EQ PUSH2 0x8AE JUMPI DUP2 PUSH4 0x67EEBA0C EQ PUSH2 0x88F JUMPI DUP2 PUSH4 0x715018A6 EQ PUSH2 0x835 JUMPI DUP2 PUSH4 0x8DA5CB5B EQ PUSH2 0x80D JUMPI DUP2 PUSH4 0x9281AA0B EQ PUSH2 0x792 JUMPI DUP2 PUSH4 0xA9A23409 EQ PUSH2 0x68C JUMPI DUP2 PUSH4 0xB0D691FE EQ PUSH2 0x648 JUMPI DUP2 PUSH4 0xB20D30A9 EQ PUSH2 0x5FA JUMPI DUP4 DUP3 PUSH4 0xBB9FE6BF EQ PUSH2 0x587 JUMPI DUP3 PUSH4 0xC23A5CEA EQ PUSH2 0x500 JUMPI POP DUP2 PUSH4 0xC399EC88 EQ PUSH2 0x435 JUMPI DUP4 DUP3 PUSH4 0xD0E30DB0 EQ PUSH2 0x3A7 JUMPI POP DUP2 PUSH4 0xF2FDE38B EQ PUSH2 0x2DA JUMPI DUP2 PUSH4 0xF465C77E EQ PUSH2 0x187 JUMPI POP DUP1 PUSH4 0xF6A6830F EQ PUSH2 0x14A JUMPI PUSH4 0xFFC8ADA6 EQ PUSH2 0x110 JUMPI PUSH1 0x0 DUP1 REVERT JUMPDEST CALLVALUE PUSH2 0x146 JUMPI PUSH1 0x20 CALLDATASIZE PUSH1 0x3 NOT ADD SLT PUSH2 0x146 JUMPI PUSH1 0x20 SWAP2 DUP2 SWAP1 PUSH1 0x1 PUSH1 0x1 PUSH1 0xA0 SHL SUB PUSH2 0x136 PUSH2 0xB3E JUMP JUMPDEST AND DUP2 MSTORE PUSH1 0x3 DUP5 MSTORE KECCAK256 SLOAD SWAP1 MLOAD SWAP1 DUP2 MSTORE RETURN JUMPDEST POP DUP1 REVERT JUMPDEST POP CALLVALUE PUSH2 0x146 JUMPI PUSH1 0x20 CALLDATASIZE PUSH1 0x3 NOT ADD SLT PUSH2 0x146 JUMPI PUSH1 0x20 SWAP2 PUSH1 0xFF SWAP1 DUP3 SWAP1 PUSH1 0x1 PUSH1 0x1 PUSH1 0xA0 SHL SUB PUSH2 0x174 PUSH2 0xB3E JUMP JUMPDEST AND DUP2 MSTORE PUSH1 0x2 DUP6 MSTORE KECCAK256 SLOAD AND SWAP1 MLOAD SWAP1 ISZERO ISZERO DUP2 MSTORE RETURN JUMPDEST DUP4 SWAP2 POP CALLVALUE PUSH2 0x146 JUMPI PUSH1 0x3 NOT SWAP2 PUSH1 0x60 CALLDATASIZE DUP5 ADD SLT PUSH2 0x2D7 JUMPI DUP2 CALLDATALOAD SWAP4 PUSH8 0xFFFFFFFFFFFFFFFF SWAP4 DUP5 DUP7 GT PUSH2 0x2D3 JUMPI PUSH2 0x160 SWAP1 DUP7 CALLDATASIZE SUB ADD SLT PUSH2 0x146 JUMPI PUSH1 0x44 CALLDATALOAD SWAP5 PUSH2 0x1CA PUSH2 0xC87 JUMP JUMPDEST PUSH1 0x1 PUSH1 0x1 PUSH1 0xA0 SHL SUB SWAP1 PUSH2 0x1DE SWAP1 DUP6 ADD PUSH2 0xC1B JUMP JUMPDEST AND SWAP3 DUP4 DUP4 MSTORE PUSH1 0x20 SWAP6 PUSH1 0x3 DUP8 MSTORE DUP3 DUP5 KECCAK256 SLOAD DUP3 DUP9 MSTORE DUP2 PUSH3 0x15180 TIMESTAMP DIV DUP6 DUP8 KECCAK256 SLOAD LT PUSH2 0x2CB JUMPI JUMPDEST PUSH2 0x20B SWAP2 PUSH2 0xCF6 JUMP JUMPDEST PUSH1 0x1 SLOAD LT PUSH2 0x292 JUMPI DUP3 MLOAD SWAP5 DUP8 DUP7 ADD MSTORE DUP3 DUP6 ADD MSTORE DUP2 DUP5 MSTORE PUSH1 0x60 DUP5 ADD SWAP5 DUP5 DUP7 LT SWAP1 DUP7 GT OR PUSH2 0x27D JUMPI POP DUP4 DUP2 MSTORE DUP4 MSTORE DUP2 MLOAD SWAP1 DUP2 PUSH1 0xA0 DUP5 ADD MSTORE DUP1 JUMPDEST DUP3 DUP2 LT PUSH2 0x269 JUMPI POP DUP3 DUP3 ADD PUSH1 0xC0 ADD DUP2 SWAP1 MSTORE PUSH1 0x80 DUP4 ADD MSTORE PUSH1 0x1F ADD PUSH1 0x1F NOT AND DUP2 ADD SUB PUSH1 0x60 ADD SWAP2 POP RETURN JUMPDEST DUP1 DUP7 SWAP2 DUP6 ADD PUSH1 0xC0 DUP4 DUP3 ADD MLOAD SWAP2 ADD MSTORE ADD PUSH2 0x242 JUMP JUMPDEST PUSH1 0x41 SWAP1 PUSH4 0x4E487B71 PUSH1 0xE0 SHL PUSH1 0x0 MSTORE MSTORE PUSH1 0x24 PUSH1 0x0 REVERT JUMPDEST POP DUP6 PUSH1 0x64 SWAP3 MLOAD SWAP2 PUSH3 0x461BCD PUSH1 0xE5 SHL DUP4 MSTORE DUP3 ADD MSTORE PUSH1 0x14 PUSH1 0x24 DUP3 ADD MSTORE PUSH20 0x11185A5B1E481B1A5B5A5D08195E18D959591959 PUSH1 0x62 SHL PUSH1 0x44 DUP3 ADD MSTORE REVERT JUMPDEST DUP6 SWAP2 POP PUSH2 0x202 JUMP JUMPDEST DUP3 DUP1 REVERT JUMPDEST DUP1 REVERT JUMPDEST SWAP1 POP CALLVALUE PUSH2 0x2D3 JUMPI PUSH1 0x20 CALLDATASIZE PUSH1 0x3 NOT ADD SLT PUSH2 0x2D3 JUMPI PUSH2 0x2F5 PUSH2 0xB3E JUMP JUMPDEST SWAP1 PUSH2 0x2FE PUSH2 0xC2F JUMP JUMPDEST PUSH1 0x1 PUSH1 0x1 PUSH1 0xA0 SHL SUB SWAP2 DUP3 AND SWAP3 DUP4 ISZERO PUSH2 0x355 JUMPI POP POP PUSH1 0x0 SLOAD DUP3 PUSH12 0xFFFFFFFFFFFFFFFFFFFFFFFF PUSH1 0xA0 SHL DUP3 AND OR PUSH1 0x0 SSTORE AND PUSH32 0x8BE0079C531659141344CD1FD0A4F28419497F9722A3DAAFE3B4186F6B6457E0 PUSH1 0x0 DUP1 LOG3 DUP1 RETURN JUMPDEST SWAP1 PUSH1 0x20 PUSH1 0x84 SWAP3 MLOAD SWAP2 PUSH3 0x461BCD PUSH1 0xE5 SHL DUP4 MSTORE DUP3 ADD MSTORE PUSH1 0x26 PUSH1 0x24 DUP3 ADD MSTORE PUSH32 0x4F776E61626C653A206E6577206F776E657220697320746865207A65726F2061 PUSH1 0x44 DUP3 ADD MSTORE PUSH6 0x646472657373 PUSH1 0xD0 SHL PUSH1 0x64 DUP3 ADD MSTORE REVERT JUMPDEST DUP1 SWAP2 DUP5 DUP3 PUSH1 0x3 NOT CALLDATASIZE ADD SLT PUSH2 0x431 JUMPI PUSH32 0x0 PUSH1 0x1 PUSH1 0x1 PUSH1 0xA0 SHL SUB AND SWAP2 DUP3 EXTCODESIZE ISZERO PUSH2 0x42C JUMPI DUP4 SWAP1 PUSH1 0x24 DUP4 MLOAD DUP1 SWAP6 DUP2 SWAP4 PUSH4 0xB760FAF9 PUSH1 0xE0 SHL DUP4 MSTORE ADDRESS SWAP1 DUP4 ADD MSTORE CALLVALUE SWAP1 GAS CALL SWAP1 DUP2 ISZERO PUSH2 0x423 JUMPI POP PUSH2 0x413 JUMPI POP RETURN JUMPDEST PUSH2 0x41C SWAP1 PUSH2 0xB63 JUMP JUMPDEST PUSH2 0x2D7 JUMPI DUP1 RETURN JUMPDEST MLOAD RETURNDATASIZE DUP5 DUP3 RETURNDATACOPY RETURNDATASIZE SWAP1 REVERT JUMPDEST POP POP POP REVERT JUMPDEST POP POP REVERT JUMPDEST SWAP2 SWAP1 POP CALLVALUE PUSH2 0x2D3 JUMPI DUP3 PUSH1 0x3 NOT CALLDATASIZE ADD SLT PUSH2 0x2D3 JUMPI DUP1 MLOAD PUSH4 0x70A08231 PUSH1 0xE0 SHL DUP2 MSTORE ADDRESS DUP4 DUP3 ADD MSTORE PUSH1 0x20 DUP2 PUSH1 0x24 DUP2 PUSH32 0x0 PUSH1 0x1 PUSH1 0x1 PUSH1 0xA0 SHL SUB AND GAS STATICCALL SWAP3 DUP4 ISZERO PUSH2 0x4F6 JUMPI DUP5 SWAP4 PUSH2 0x4A3 JUMPI JUMPDEST PUSH1 0x20 DUP5 DUP5 MLOAD SWAP1 DUP2 MSTORE RETURN JUMPDEST SWAP1 SWAP2 SWAP3 POP PUSH1 0x20 SWAP1 RETURNDATASIZE PUSH1 0x20 GT PUSH2 0x4EE JUMPI JUMPDEST PUSH1 0x1F DUP3 ADD PUSH1 0x1F NOT AND DUP4 ADD SWAP1 PUSH8 0xFFFFFFFFFFFFFFFF DUP3 GT DUP5 DUP4 LT OR PUSH2 0x27D JUMPI POP PUSH1 0x20 SWAP2 DUP4 SWAP2 DUP6 MSTORE DUP2 ADD SUB SLT PUSH2 0x2D3 JUMPI PUSH1 0x20 SWAP3 POP MLOAD SWAP1 CODESIZE DUP1 PUSH2 0x499 JUMP JUMPDEST RETURNDATASIZE SWAP2 POP PUSH2 0x4B3 JUMP JUMPDEST DUP3 MLOAD RETURNDATASIZE DUP7 DUP3 RETURNDATACOPY RETURNDATASIZE SWAP1 REVERT JUMPDEST DUP1 SWAP2 DUP5 CALLVALUE PUSH2 0x431 JUMPI PUSH1 0x20 CALLDATASIZE PUSH1 0x3 NOT ADD SLT PUSH2 0x431 JUMPI PUSH2 0x51C PUSH2 0xB3E JUMP JUMPDEST PUSH2 0x524 PUSH2 0xC2F JUMP JUMPDEST PUSH1 0x1 PUSH1 0x1 PUSH1 0xA0 SHL SUB PUSH32 0x0 DUP2 AND DUP1 EXTCODESIZE ISZERO PUSH2 0x583 JUMPI DUP6 SWAP3 DUP4 PUSH1 0x24 SWAP3 DUP7 MLOAD SWAP8 DUP9 SWAP6 DUP7 SWAP5 PUSH4 0x611D2E75 PUSH1 0xE1 SHL DUP7 MSTORE AND SWAP1 DUP5 ADD MSTORE GAS CALL SWAP1 DUP2 ISZERO PUSH2 0x423 JUMPI POP PUSH2 0x413 JUMPI POP RETURN JUMPDEST DUP6 DUP1 REVERT JUMPDEST DUP1 SWAP2 DUP5 CALLVALUE PUSH2 0x431 JUMPI DUP3 PUSH1 0x3 NOT CALLDATASIZE ADD SLT PUSH2 0x431 JUMPI PUSH2 0x5A2 PUSH2 0xC2F JUMP JUMPDEST PUSH32 0x0 PUSH1 0x1 PUSH1 0x1 PUSH1 0xA0 SHL SUB AND SWAP2 DUP3 EXTCODESIZE ISZERO PUSH2 0x42C JUMPI DUP2 MLOAD PUSH4 0xBB9FE6BF PUSH1 0xE0 SHL DUP2 MSTORE SWAP3 DUP5 SWAP2 DUP5 SWAP2 DUP3 SWAP1 DUP5 SWAP1 GAS CALL SWAP1 DUP2 ISZERO PUSH2 0x423 JUMPI POP PUSH2 0x413 JUMPI POP RETURN JUMPDEST SWAP1 POP CALLVALUE PUSH2 0x2D3 JUMPI PUSH1 0x20 CALLDATASIZE PUSH1 0x3 NOT ADD SLT PUSH2 0x2D3 JUMPI PUSH32 0x6CD8635C4285386B9DE2E59A4C1EAF32AD41F28AE64C308280217D7AF51464E0 SWAP2 PUSH1 0x20 SWAP2 CALLDATALOAD SWAP1 PUSH2 0x63C PUSH2 0xC2F JUMP JUMPDEST DUP2 PUSH1 0x1 SSTORE MLOAD SWAP1 DUP2 MSTORE LOG1 DUP1 RETURN JUMPDEST POP POP CALLVALUE PUSH2 0x146 JUMPI DUP2 PUSH1 0x3 NOT CALLDATASIZE ADD SLT PUSH2 0x146 JUMPI MLOAD PUSH32 0x0 PUSH1 0x1 PUSH1 0x1 PUSH1 0xA0 SHL SUB AND DUP2 MSTORE PUSH1 0x20 SWAP1 RETURN JUMPDEST SWAP1 POP CALLVALUE PUSH2 0x2D3 JUMPI PUSH1 0x60 CALLDATASIZE PUSH1 0x3 NOT ADD SLT PUSH2 0x2D3 JUMPI PUSH1 0x3 DUP2 CALLDATALOAD LT ISZERO PUSH2 0x2D3 JUMPI PUSH1 0x24 CALLDATALOAD SWAP2 PUSH8 0xFFFFFFFFFFFFFFFF DUP1 DUP5 GT PUSH2 0x78E JUMPI CALLDATASIZE PUSH1 0x23 DUP6 ADD SLT ISZERO PUSH2 0x78E JUMPI DUP4 DUP4 ADD CALLDATALOAD SWAP1 DUP2 GT PUSH2 0x78E JUMPI DUP4 ADD SWAP3 CALLDATASIZE PUSH1 0x24 DUP6 ADD GT PUSH2 0x78E JUMPI DUP2 DUP2 PUSH1 0x44 CALLDATALOAD SWAP6 PUSH2 0x6EE PUSH2 0xC87 JUMP JUMPDEST SUB SLT PUSH2 0x789 JUMPI PUSH1 0x24 ADD CALLDATALOAD SWAP3 PUSH1 0x1 DUP1 PUSH1 0xA0 SHL SUB DUP5 AND DUP1 SWAP5 SUB PUSH2 0x789 JUMPI PUSH32 0xB3D8DA13E2EEC10930982AE94CC39CD56A1E686B864A50F632765647BDFE622B SWAP3 PUSH3 0x15180 TIMESTAMP DIV DUP6 DUP8 MSTORE PUSH1 0x20 SWAP2 DUP1 DUP4 MSTORE DUP2 DUP6 DUP10 KECCAK256 SLOAD LT PUSH2 0x773 JUMPI JUMPDEST POP POP PUSH1 0x3 DUP2 MSTORE DUP3 DUP7 KECCAK256 PUSH2 0x759 DUP4 DUP3 SLOAD PUSH2 0xCF6 JUMP JUMPDEST SWAP1 SSTORE DUP5 DUP7 MSTORE PUSH1 0x3 DUP2 MSTORE DUP3 DUP7 KECCAK256 SLOAD SWAP1 DUP4 MLOAD SWAP3 DUP4 MSTORE DUP3 ADD MSTORE LOG2 DUP1 RETURN JUMPDEST PUSH1 0x3 DUP4 MSTORE DUP8 DUP6 DUP2 KECCAK256 SSTORE DUP3 MSTORE DUP4 DUP8 KECCAK256 SSTORE CODESIZE DUP1 PUSH2 0x745 JUMP JUMPDEST PUSH1 0x0 DUP1 REVERT JUMPDEST DUP5 DUP1 REVERT JUMPDEST POP POP CALLVALUE PUSH2 0x146 JUMPI DUP1 PUSH1 0x3 NOT CALLDATASIZE ADD SLT PUSH2 0x146 JUMPI PUSH32 0xF93F9A76C1BF3444D22400A00CB9FE990E6ABE9DBB333FDA48859CFEE864543D PUSH1 0x20 PUSH2 0x7CF PUSH2 0xB3E JUMP JUMPDEST PUSH2 0x7D7 PUSH2 0xB54 JUMP JUMPDEST SWAP1 PUSH2 0x7E0 PUSH2 0xC2F JUMP JUMPDEST PUSH1 0x1 PUSH1 0x1 PUSH1 0xA0 SHL SUB AND DUP1 DUP7 MSTORE PUSH1 0x2 DUP4 MSTORE DUP5 DUP7 KECCAK256 DUP1 SLOAD PUSH1 0xFF NOT AND PUSH1 0xFF DUP5 ISZERO ISZERO AND OR SWAP1 SSTORE SWAP4 MLOAD SWAP1 ISZERO ISZERO DUP2 MSTORE LOG2 DUP1 RETURN JUMPDEST POP POP CALLVALUE PUSH2 0x146 JUMPI DUP2 PUSH1 0x3 NOT CALLDATASIZE ADD SLT PUSH2 0x146 JUMPI SWAP1 SLOAD SWAP1 MLOAD PUSH1 0x1 PUSH1 0x1 PUSH1 0xA0 SHL SUB SWAP1 SWAP2 AND DUP2 MSTORE PUSH1 0x20 SWAP1 RETURN JUMPDEST DUP4 CALLVALUE PUSH2 0x2D7 JUMPI DUP1 PUSH1 0x3 NOT CALLDATASIZE ADD SLT PUSH2 0x2D7 JUMPI PUSH2 0x84E PUSH2 0xC2F JUMP JUMPDEST PUSH1 0x0 DUP1 SLOAD PUSH1 0x1 PUSH1 0x1 PUSH1 0xA0 SHL SUB NOT DUP2 AND DUP3 SSTORE PUSH1 0x1 PUSH1 0x1 PUSH1 0xA0 SHL SUB AND PUSH32 0x8BE0079C531659141344CD1FD0A4F28419497F9722A3DAAFE3B4186F6B6457E0 DUP3 DUP1 LOG3 DUP1 RETURN JUMPDEST POP POP CALLVALUE PUSH2 0x146 JUMPI DUP2 PUSH1 0x3 NOT CALLDATASIZE ADD SLT PUSH2 0x146 JUMPI PUSH1 0x20 SWAP1 PUSH1 0x1 SLOAD SWAP1 MLOAD SWAP1 DUP2 MSTORE RETURN JUMPDEST POP POP CALLVALUE PUSH2 0x146 JUMPI DUP2 PUSH1 0x3 NOT CALLDATASIZE ADD SLT PUSH2 0x146 JUMPI PUSH1 0x20 SWAP1 MLOAD PUSH3 0x15180 TIMESTAMP DIV DUP2 MSTORE RETURN JUMPDEST SWAP1 POP CALLVALUE PUSH2 0x2D3 JUMPI PUSH1 0x20 CALLDATASIZE PUSH1 0x3 NOT ADD SLT PUSH2 0x2D3 JUMPI PUSH1 0x20 SWAP3 DUP3 SWAP2 PUSH1 0x1 PUSH1 0x1 PUSH1 0xA0 SHL SUB PUSH2 0x8F6 PUSH2 0xB3E JUMP JUMPDEST AND DUP3 MSTORE DUP5 MSTORE KECCAK256 SLOAD SWAP1 MLOAD SWAP1 DUP2 MSTORE RETURN JUMPDEST SWAP2 SWAP1 POP CALLVALUE PUSH2 0x2D3 JUMPI DUP1 PUSH1 0x3 NOT CALLDATASIZE ADD SLT PUSH2 0x2D3 JUMPI DUP2 CALLDATALOAD PUSH8 0xFFFFFFFFFFFFFFFF SWAP3 DUP4 DUP3 GT PUSH2 0x78E JUMPI CALLDATASIZE PUSH1 0x23 DUP4 ADD SLT ISZERO PUSH2 0x78E JUMPI DUP2 ADD CALLDATALOAD SWAP3 DUP4 GT PUSH2 0x9F3 JUMPI PUSH1 0x24 DUP2 ADD SWAP1 PUSH1 0x24 CALLDATASIZE SWAP2 DUP6 PUSH1 0x5 SHL ADD ADD GT PUSH2 0x9F3 JUMPI SWAP2 PUSH2 0x95C PUSH2 0xB54 JUMP JUMPDEST PUSH2 0x964 PUSH2 0xC2F JUMP JUMPDEST DUP1 ISZERO ISZERO SWAP2 DUP6 JUMPDEST DUP2 DUP2 LT PUSH2 0x975 JUMPI DUP7 DUP1 RETURN JUMPDEST PUSH1 0x1 SWAP1 PUSH1 0x1 PUSH1 0x1 PUSH1 0xA0 SHL SUB DUP1 PUSH2 0x994 PUSH2 0x98F DUP5 DUP8 DUP13 PUSH2 0xBF5 JUMP JUMPDEST PUSH2 0xC1B JUMP JUMPDEST AND DUP10 MSTORE PUSH32 0xF93F9A76C1BF3444D22400A00CB9FE990E6ABE9DBB333FDA48859CFEE864543D PUSH1 0x20 SWAP2 PUSH1 0x2 DUP4 MSTORE PUSH2 0x9D7 DUP8 DUP11 DUP14 KECCAK256 SWAP1 PUSH1 0xFF DUP1 NOT DUP4 SLOAD AND SWAP2 ISZERO ISZERO AND OR SWAP1 SSTORE JUMP JUMPDEST PUSH2 0x9E5 PUSH2 0x98F DUP6 DUP9 DUP14 PUSH2 0xBF5 JUMP JUMPDEST AND SWAP2 DUP9 MLOAD DUP9 DUP2 MSTORE LOG2 ADD PUSH2 0x96A JUMP JUMPDEST DUP4 DUP1 REVERT JUMPDEST DUP1 SWAP2 DUP5 CALLVALUE PUSH2 0x431 JUMPI DUP1 PUSH1 0x3 NOT CALLDATASIZE ADD SLT PUSH2 0x431 JUMPI PUSH2 0xA12 PUSH2 0xB3E JUMP JUMPDEST PUSH2 0xA1A PUSH2 0xC2F JUMP JUMPDEST PUSH1 0x1 PUSH1 0x1 PUSH1 0xA0 SHL SUB PUSH32 0x0 DUP2 AND DUP1 EXTCODESIZE ISZERO PUSH2 0x583 JUMPI DUP6 SWAP3 DUP4 PUSH1 0x44 SWAP3 DUP7 MLOAD SWAP8 DUP9 SWAP6 DUP7 SWAP5 PUSH4 0x40B850F PUSH1 0xE3 SHL DUP7 MSTORE AND SWAP1 DUP5 ADD MSTORE PUSH1 0x24 CALLDATALOAD PUSH1 0x24 DUP5 ADD MSTORE GAS CALL SWAP1 DUP2 ISZERO PUSH2 0x423 JUMPI POP PUSH2 0x413 JUMPI POP RETURN JUMPDEST POP POP CALLVALUE PUSH2 0x146 JUMPI PUSH1 0x20 CALLDATASIZE PUSH1 0x3 NOT ADD SLT PUSH2 0x146 JUMPI PUSH1 0x20 SWAP1 PUSH2 0xAA7 PUSH2 0xAA2 PUSH2 0xB3E JUMP JUMPDEST PUSH2 0xB8D JUMP JUMPDEST SWAP1 MLOAD SWAP1 DUP2 MSTORE RETURN JUMPDEST SWAP2 SWAP1 POP PUSH1 0x20 CALLDATASIZE PUSH1 0x3 NOT ADD SLT PUSH2 0x2D3 JUMPI DUP3 DUP3 CALLDATALOAD PUSH4 0xFFFFFFFF DUP2 AND DUP1 SWAP2 SUB PUSH2 0x146 JUMPI PUSH2 0xAD6 PUSH2 0xC2F JUMP JUMPDEST PUSH32 0x0 PUSH1 0x1 PUSH1 0x1 PUSH1 0xA0 SHL SUB AND SWAP4 DUP5 EXTCODESIZE ISZERO PUSH2 0x2D3 JUMPI PUSH1 0x24 SWAP1 DUP5 MLOAD SWAP6 DUP7 SWAP4 DUP5 SWAP3 PUSH3 0x1CB65B PUSH1 0xE5 SHL DUP5 MSTORE DUP4 ADD MSTORE CALLVALUE SWAP1 GAS CALL SWAP1 DUP2 ISZERO PUSH2 0x423 JUMPI POP PUSH2 0xB32 JUMPI POP DUP1 RETURN JUMPDEST PUSH2 0xB3B SWAP1 PUSH2 0xB63 JUMP JUMPDEST DUP1 RETURN JUMPDEST PUSH1 0x4 CALLDATALOAD SWAP1 PUSH1 0x1 PUSH1 0x1 PUSH1 0xA0 SHL SUB DUP3 AND DUP3 SUB PUSH2 0x789 JUMPI JUMP JUMPDEST PUSH1 0x24 CALLDATALOAD SWAP1 DUP2 ISZERO ISZERO DUP3 SUB PUSH2 0x789 JUMPI JUMP JUMPDEST PUSH8 0xFFFFFFFFFFFFFFFF DUP2 GT PUSH2 0xB77 JUMPI PUSH1 0x40 MSTORE JUMP JUMPDEST PUSH4 0x4E487B71 PUSH1 0xE0 SHL PUSH1 0x0 MSTORE PUSH1 0x41 PUSH1 0x4 MSTORE PUSH1 0x24 PUSH1 0x0 REVERT JUMPDEST PUSH1 0x1 PUSH1 0x1 PUSH1 0xA0 SHL SUB AND PUSH1 0x0 SWAP1 DUP2 MSTORE PUSH1 0x4 PUSH1 0x20 MSTORE PUSH1 0x40 DUP2 KECCAK256 SLOAD PUSH3 0x15180 TIMESTAMP DIV GT PUSH2 0xBEE JUMPI PUSH1 0x3 PUSH1 0x20 MSTORE PUSH1 0x40 DUP2 KECCAK256 SLOAD SWAP1 PUSH1 0x1 SLOAD SWAP2 DUP3 DUP2 LT ISZERO PUSH2 0xBE8 JUMPI DUP3 SUB SWAP2 DUP3 GT PUSH2 0xBD4 JUMPI POP SWAP1 JUMP JUMPDEST PUSH4 0x4E487B71 PUSH1 0xE0 SHL DUP2 MSTORE PUSH1 0x11 PUSH1 0x4 MSTORE PUSH1 0x24 SWAP1 REVERT JUMPDEST POP SWAP1 POP SWAP1 JUMP JUMPDEST POP PUSH1 0x1 SLOAD SWAP1 JUMP JUMPDEST SWAP2 SWAP1 DUP2 LT ISZERO PUSH2 0xC05 JUMPI PUSH1 0x5 SHL ADD SWAP1 JUMP JUMPDEST PUSH4 0x4E487B71 PUSH1 0xE0 SHL PUSH1 0x0 MSTORE PUSH1 0x32 PUSH1 0x4 MSTORE PUSH1 0x24 PUSH1 0x0 REVERT JUMPDEST CALLDATALOAD PUSH1 0x1 PUSH1 0x1 PUSH1 0xA0 SHL SUB DUP2 AND DUP2 SUB PUSH2 0x789 JUMPI SWAP1 JUMP JUMPDEST PUSH1 0x0 SLOAD PUSH1 0x1 PUSH1 0x1 PUSH1 0xA0 SHL SUB AND CALLER SUB PUSH2 0xC43 JUMPI JUMP JUMPDEST PUSH1 0x64 PUSH1 0x40 MLOAD PUSH3 0x461BCD PUSH1 0xE5 SHL DUP2 MSTORE PUSH1 0x20 PUSH1 0x4 DUP3 ADD MSTORE PUSH1 0x20 PUSH1 0x24 DUP3 ADD MSTORE PUSH32 0x4F776E61626C653A2063616C6C6572206973206E6F7420746865206F776E6572 PUSH1 0x44 DUP3 ADD MSTORE REVERT JUMPDEST PUSH32 0x0 PUSH1 0x1 PUSH1 0x1 PUSH1 0xA0 SHL SUB AND CALLER SUB PUSH2 0xCB9 JUMPI JUMP JUMPDEST PUSH1 0x40 MLOAD PUSH3 0x461BCD PUSH1 0xE5 SHL DUP2 MSTORE PUSH1 0x20 PUSH1 0x4 DUP3 ADD MSTORE PUSH1 0x15 PUSH1 0x24 DUP3 ADD MSTORE PUSH21 0x14D95B99195C881B9BDD08115B9D1C9E541BDA5B9D PUSH1 0x5A SHL PUSH1 0x44 DUP3 ADD MSTORE PUSH1 0x64 SWAP1 REVERT JUMPDEST SWAP2 SWAP1 DUP3 ADD DUP1 SWAP3 GT PUSH2 0xD03 JUMPI JUMP JUMPDEST PUSH4 0x4E487B71 PUSH1 0xE0 SHL PUSH1 0x0 MSTORE PUSH1 0x11 PUSH1 0x4 MSTORE PUSH1 0x24 PUSH1 0x0 REVERT INVALID LOG2 PUSH5 0x6970667358 0x22 SLT KECCAK256 XOR 0xBB 0x22 PUSH15 0x66B8E0F493BC6FD90826A841C230E6 MLOAD 0xD9 0xCC 0xD6 LOG3 0x2D 0x25 0x4E BYTE STATICCALL SWAP15 0xD2 0xCE PUSH5 0x736F6C6343 STOP ADDMOD OR STOP CALLER "},"methodIdentifiers":{"addStake(uint32)":"0396cb60","dailyLimit()":"67eeba0c","dailySpent(address)":"ffc8ada6","deposit()":"d0e30db0","entryPoint()":"b0d691fe","getCurrentDay()":"3e6968b6","getDeposit()":"c399ec88","getRemainingDailyAllowance(address)":"1b583f90","lastResetDay(address)":"33b9baa5","owner()":"8da5cb5b","postOp(uint8,bytes,uint256)":"a9a23409","renounceOwnership()":"715018a6","setDailyLimit(uint256)":"b20d30a9","setWhitelisted(address,bool)":"9281aa0b","setWhitelistedBatch(address[],bool)":"2f6707e9","transferOwnership(address)":"f2fde38b","unlockStake()":"bb9fe6bf","validatePaymasterUserOp((address,uint256,bytes,bytes,uint256,uint256,uint256,uint256,uint256,bytes,bytes),bytes32,uint256)":"f465c77e","whitelistedAccounts(address)":"f6a6830f","withdrawStake(address)":"c23a5cea","withdrawTo(address,uint256)":"205c2878"}}}}}