{"contracts/SimpleSmartAccount.sol":{"SimpleSmartAccount":{"abi":[{"inputs":[{"internalType":"contract IEntryPoint","name":"_entryPoint","type":"address"}],"stateMutability":"nonpayable","type":"constructor"},{"anonymous":false,"inputs":[{"indexed":true,"internalType":"address","name":"target","type":"address"},{"indexed":false,"internalType":"uint256","name":"value","type":"uint256"},{"indexed":false,"internalType":"bytes","name":"data","type":"bytes"}],"name":"Executed","type":"event"},{"anonymous":false,"inputs":[{"indexed":false,"internalType":"address[]","name":"targets","type":"address[]"},{"indexed":false,"internalType":"uint256[]","name":"values","type":"uint256[]"},{"indexed":false,"internalType":"bytes[]","name":"datas","type":"bytes[]"}],"name":"ExecutedBatch","type":"event"},{"anonymous":false,"inputs":[{"indexed":false,"internalType":"uint8","name":"version","type":"uint8"}],"name":"Initialized","type":"event"},{"stateMutability":"payable","type":"fallback"},{"inputs":[],"name":"addDeposit","outputs":[],"stateMutability":"payable","type":"function"},{"inputs":[],"name":"entryPoint","outputs":[{"internalType":"contract IEntryPoint","name":"","type":"address"}],"stateMutability":"view","type":"function"},{"inputs":[{"internalType":"address","name":"target","type":"address"},{"internalType":"uint256","name":"value","type":"uint256"},{"internalType":"bytes","name":"data","type":"bytes"}],"name":"execute","outputs":[],"stateMutability":"nonpayable","type":"function"},{"inputs":[{"internalType":"address[]","name":"targets","type":"address[]"},{"internalType":"uint256[]","name":"values","type":"uint256[]"},{"internalType":"bytes[]","name":"datas","type":"bytes[]"}],"name":"executeBatch","outputs":[],"stateMutability":"nonpayable","type":"function"},{"inputs":[],"name":"getDeposit","outputs":[{"internalType":"uint256","name":"","type":"uint256"}],"stateMutability":"view","type":"function"},{"inputs":[],"name":"getNonce","outputs":[{"internalType":"uint256","name":"","type":"uint256"}],"stateMutability":"view","type":"function"},{"inputs":[{"internalType":"address","name":"_owner","type":"address"}],"name":"initialize","outputs":[],"stateMutability":"nonpayable","type":"function"},{"inputs":[],"name":"owner","outputs":[{"internalType":"address","name":"","type":"address"}],"stateMutability":"view","type":"function"},{"inputs":[{"components":[{"internalType":"address","name":"sender","type":"address"},{"internalType":"uint256","name":"nonce","type":"uint256"},{"internalType":"bytes","name":"initCode","type":"bytes"},{"internalType":"bytes","name":"callData","type":"bytes"},{"internalType":"uint256","name":"callGasLimit","type":"uint256"},{"internalType":"uint256","name":"verificationGasLimit","type":"uint256"},{"internalType":"uint256","name":"preVerificationGas","type":"uint256"},{"internalType":"uint256","name":"maxFeePerGas","type":"uint256"},{"internalType":"uint256","name":"maxPriorityFeePerGas","type":"uint256"},{"internalType":"bytes","name":"paymasterAndData","type":"bytes"},{"internalType":"bytes","name":"signature","type":"bytes"}],"internalType":"struct UserOperation","name":"userOp","type":"tuple"},{"internalType":"bytes32","name":"userOpHash","type":"bytes32"},{"internalType":"uint256","name":"missingAccountFunds","type":"uint256"}],"name":"validateUserOp","outputs":[{"internalType":"uint256","name":"validationData","type":"uint256"}],"stateMutability":"nonpayable","type":"function"},{"inputs":[{"internalType":"address payable","name":"withdrawAddress","type":"address"},{"internalType":"uint256","name":"amount","type":"uint256"}],"name":"withdrawDepositTo","outputs":[],"stateMutability":"nonpayable","type":"function"},{"stateMutability":"payable","type":"receive"}],"evm":{"bytecode":{"linkReferences":{},"object":"60a03461014357601f6110aa38819003918201601f19168301916001600160401b038311848410176101485780849260209460405283398101031261014357516001600160a01b03811681036101435760805260005460ff8160081c166100ee5760ff808216036100b3575b604051610f4b908161015f823960805181818160ef0152818161035701528181610399015281816104560152818161054b0152818161060c0152818161079d0152610b5b0152f35b60ff90811916176000557f7f26b83ff96e1f2b6a682f133852f6798a09c465da95921460cefb3847402498602060405160ff8152a13861006b565b60405162461bcd60e51b815260206004820152602760248201527f496e697469616c697a61626c653a20636f6e747261637420697320696e697469604482015266616c697a696e6760c81b6064820152608490fd5b600080fd5b634e487b7160e01b600052604160045260246000fdfe60806040526004361015610018575b361561001657005b005b60003560e01c80633a871cdd146100b857806347e1da2a146100b35780634a58db19146100ae5780634d44560d146100a95780638da5cb5b146100a4578063b0d691fe1461009f578063b61d27f61461009a578063c399ec8814610095578063c4d66de8146100905763d087d2880361000e5761076a565b61067d565b6105e0565b61057a565b610535565b610508565b61041b565b61038a565b6101d2565b3461019c5760031960603682011261019c576004359067ffffffffffffffff821161019c5761016090823603011261019c576044357f00000000000000000000000000000000000000000000000000000000000000006001600160a01b03163303610165576101306101489260243590600401610c61565b908061014c575b506040519081529081906020820190565b0390f35b600080808093335af15061015e610875565b5038610137565b60405162461bcd60e51b815260206004820152600f60248201526e13db9b1e48115b9d1c9e541bda5b9d608a1b6044820152606490fd5b600080fd5b9181601f8401121561019c5782359167ffffffffffffffff831161019c576020808501948460051b01011161019c57565b3461019c57606036600319011261019c5767ffffffffffffffff60043581811161019c576102049036906004016101a1565b60249291923582811161019c5761021f9036906004016101a1565b93909260443590811161019c5761023a9036906004016101a1565b9460018060a01b039461026060009680885460101c163314908115610353575b506108a5565b8185148061034a575b1561031357855b8581106102b35750917f01e4fe80df8bc3d85d062e9e85b3835bef083b2a76d829d04b27212b33f0e41b9596916102ad9360405196879687610a31565b0390a180f35b86806102c86102c3848a8a610907565b61091c565b6102d3848787610907565b356102df858d8a61095c565b91906102f060405180948193610977565b03925af16102fc610875565b901561030b5750600101610270565b602081519101fd5b60405162461bcd60e51b815260206004820152600f60248201526e098cadccee8d040dad2e6dac2e8c6d608b1b6044820152606490fd5b50868214610269565b90507f00000000000000000000000000000000000000000000000000000000000000001633143861025a565b600091031261019c57565b600080600319360112610407577f00000000000000000000000000000000000000000000000000000000000000006001600160a01b031681813b156104075760405163b760faf960e01b8152306004820152918290602490829034905af18015610402576103f6575080f35b6103ff9061081e565b80f35b610abb565b80fd5b6001600160a01b0381160361019c57565b3461019c57604036600319011261019c576004356104388161040a565b6000805490916001600160a01b039160101c821633036104d65782917f00000000000000000000000000000000000000000000000000000000000000001690813b156104d25760405163040b850f60e31b81526001600160a01b03919091166004820152602480359082015291908290604490829084905af18015610402576104bf575080f35b806104cc6103ff9261081e565b8061037f565b5050fd5b60405162461bcd60e51b815260206004820152600a60248201526927b7363c9037bbb732b960b11b6044820152606490fd5b3461019c57600036600319011261019c5760005460405160109190911c6001600160a01b03168152602090f35b3461019c57600036600319011261019c576040517f00000000000000000000000000000000000000000000000000000000000000006001600160a01b03168152602090f35b3461019c57606036600319011261019c576004356105978161040a565b6044359067ffffffffffffffff9081831161019c573660238401121561019c57826004013591821161019c57366024838501011161019c57602461001693019060243590610ac7565b3461019c57600036600319011261019c576040516370a0823160e01b81523060048201526020816024817f00000000000000000000000000000000000000000000000000000000000000006001600160a01b03165afa801561040257602091600091610650575b50604051908152f35b6106709150823d8411610676575b6106688183610837565b810190610b82565b38610647565b503d61065e565b3461019c57602036600319011261019c5760043561069a8161040a565b6106de600054916106c260ff8460081c16158094819561075c575b811561073c575b50610b91565b826106d5600160ff196000541617600055565b61072357610bf4565b6106e457005b6106f461ff001960005416600055565b604051600181527f7f26b83ff96e1f2b6a682f133852f6798a09c465da95921460cefb384740249890602090a1005b61073761010061ff00196000541617600055565b610bf4565b303b1591508161074e575b50386106bc565b6001915060ff161438610747565b600160ff82161091506106b5565b3461019c57600036600319011261019c57604051631aab3f0d60e11b8152306004820152600060248201526020816044817f00000000000000000000000000000000000000000000000000000000000000006001600160a01b03165afa801561040257610148916000916107e957506040519081529081906020820190565b610802915060203d602011610676576106688183610837565b38610137565b634e487b7160e01b600052604160045260246000fd5b67ffffffffffffffff811161083257604052565b610808565b90601f8019910116810190811067ffffffffffffffff82111761083257604052565b67ffffffffffffffff811161083257601f01601f191660200190565b3d156108a0573d9061088682610859565b916108946040519384610837565b82523d6000602084013e565b606090565b156108ac57565b60405162461bcd60e51b815260206004820152601860248201527f4f6e6c79206f776e6572206f7220456e747279506f696e7400000000000000006044820152606490fd5b634e487b7160e01b600052603260045260246000fd5b91908110156109175760051b0190565b6108f1565b356109268161040a565b90565b903590601e198136030182121561019c570180359067ffffffffffffffff821161019c5760200191813603831361019c57565b90821015610917576109739160051b810190610929565b9091565b908092918237016000815290565b908060209392818452848401376000828201840152601f01601f1916010190565b908281815260208091019360208360051b82010194846000925b8584106109d1575050505050505090565b90919293949596601f198282030184528735601e198436030181121561019c57830186810191903567ffffffffffffffff811161019c57803603831361019c57610a2088928392600195610985565b9901940194019295949391906109c0565b9195939290958060608401606085525260808301969060005b818110610a905750505081860360208301528286526001600160fb1b03831161019c576109269560209360051b80928583013701906040838284030191015201916109a6565b9091976001908935610aa18161040a565b828060a01b03168152602080910199019101919091610a4a565b6040513d6000823e3d90fd5b9160018060a01b038060005460101c1633148015610b57575b610ae9906108a5565b6000806040518785823780888101838152039086885af1610b08610875565b901561030b57507fcaf938de11c367272220bfd1d2baa99ca46665e7bc4d85f00adb51b90fe1fa9f939291610b529160405194859485526040602086015216956040840191610985565b0390a2565b50337f0000000000000000000000000000000000000000000000000000000000000000821614610ae0565b9081602091031261019c575190565b15610b9857565b60405162461bcd60e51b815260206004820152602e60248201527f496e697469616c697a61626c653a20636f6e747261637420697320616c72656160448201526d191e481a5b9a5d1a585b1a5e995960921b6064820152608490fd5b6001600160a01b03811615610c2c576000805462010000600160b01b03191660109290921b62010000600160b01b0316919091179055565b60405162461bcd60e51b815260206004820152600d60248201526c24b73b30b634b21037bbb732b960991b6044820152606490fd5b6000917f19457468657265756d205369676e6564204d6573736167653a0a3332000000008352601c52610c9d603c832091610140810190610929565b610ca981939293610859565b92610cb76040519485610837565b8184523682820111610d0c57602082859493879383610cdb98013784010152610d10565b81546001600160a01b039060101c811680610d02575030911603610cfc5790565b50600190565b911603610cfc5790565b8480fd5b61092691610d1d91610d25565b919091610d79565b906041815114600014610d4f57610973916020820151906060604084015193015160001a90610e99565b5050600090600290565b60051115610d6357565b634e487b7160e01b600052602160045260246000fd5b610d8281610d59565b80610d8a5750565b610d9381610d59565b60018103610de05760405162461bcd60e51b815260206004820152601860248201527f45434453413a20696e76616c6964207369676e617475726500000000000000006044820152606490fd5b610de981610d59565b60028103610e365760405162461bcd60e51b815260206004820152601f60248201527f45434453413a20696e76616c6964207369676e6174757265206c656e677468006044820152606490fd5b80610e42600392610d59565b14610e4957565b60405162461bcd60e51b815260206004820152602260248201527f45434453413a20696e76616c6964207369676e6174757265202773272076616c604482015261756560f01b6064820152608490fd5b9291907f7fffffffffffffffffffffffffffffff5d576e7357a4501ddfe92f46681b20a08311610f095791608094939160ff602094604051948552168484015260408301526060820152600093849182805260015afa156104025781516001600160a01b03811615610cfc579190565b5050505060009060039056fea2646970667358221220f76406e0ac8bf95d98a13df204da41f634aada8db80f0a0df19bae4374e03ee864736f6c63430008170033","opcodes":"PUSH1 0xA0 CALLVALUE PUSH2 0x143 JUMPI PUSH1 0x1F PUSH2 0x10AA CODESIZE DUP2 SWAP1 SUB SWAP2 DUP3 ADD PUSH1 0x1F NOT AND DUP4 ADD SWAP2 PUSH1 0x1 PUSH1 0x1 PUSH1 0x40 SHL SUB DUP4 GT DUP5 DUP5 LT OR PUSH2 0x148 JUMPI DUP1 DUP5 SWAP3 PUSH1 0x20 SWAP5 PUSH1 0x40 MSTORE DUP4 CODECOPY DUP2 ADD SUB SLT PUSH2 0x143 JUMPI MLOAD PUSH1 0x1 PUSH1 0x1 PUSH1 0xA0 SHL SUB DUP2 AND DUP2 SUB PUSH2 0x143 JUMPI PUSH1 0x80 MSTORE PUSH1 0x0 SLOAD PUSH1 0xFF DUP2 PUSH1 0x8 SHR AND PUSH2 0xEE JUMPI PUSH1 0xFF DUP1 DUP3 AND SUB PUSH2 0xB3 JUMPI JUMPDEST PUSH1 0x40 MLOAD PUSH2 0xF4B SWAP1 DUP2 PUSH2 0x15F DUP3 CODECOPY PUSH1 0x80 MLOAD DUP2 DUP2 DUP2 PUSH1 0xEF ADD MSTORE DUP2 DUP2 PUSH2 0x357 ADD MSTORE DUP2 DUP2 PUSH2 0x399 ADD MSTORE DUP2 DUP2 PUSH2 0x456 ADD MSTORE DUP2 DUP2 PUSH2 0x54B ADD MSTORE DUP2 DUP2 PUSH2 0x60C ADD MSTORE DUP2 DUP2 PUSH2 0x79D ADD MSTORE PUSH2 0xB5B ADD MSTORE RETURN JUMPDEST PUSH1 0xFF SWAP1 DUP2 NOT AND OR PUSH1 0x0 SSTORE PUSH32 0x7F26B83FF96E1F2B6A682F133852F6798A09C465DA95921460CEFB3847402498 PUSH1 0x20 PUSH1 0x40 MLOAD PUSH1 0xFF DUP2 MSTORE LOG1 CODESIZE PUSH2 0x6B JUMP JUMPDEST PUSH1 0x40 MLOAD PUSH3 0x461BCD PUSH1 0xE5 SHL DUP2 MSTORE PUSH1 0x20 PUSH1 0x4 DUP3 ADD MSTORE PUSH1 0x27 PUSH1 0x24 DUP3 ADD MSTORE PUSH32 0x496E697469616C697A61626C653A20636F6E747261637420697320696E697469 PUSH1 0x44 DUP3 ADD MSTORE PUSH7 0x616C697A696E67 PUSH1 0xC8 SHL PUSH1 0x64 DUP3 ADD MSTORE PUSH1 0x84 SWAP1 REVERT JUMPDEST PUSH1 0x0 DUP1 REVERT JUMPDEST PUSH4 0x4E487B71 PUSH1 0xE0 SHL PUSH1 0x0 MSTORE PUSH1 0x41 PUSH1 0x4 MSTORE PUSH1 0x24 PUSH1 0x0 REVERT INVALID PUSH1 0x80 PUSH1 0x40 MSTORE PUSH1 0x4 CALLDATASIZE LT ISZERO PUSH2 0x18 JUMPI JUMPDEST CALLDATASIZE ISZERO PUSH2 0x16 JUMPI STOP JUMPDEST STOP JUMPDEST PUSH1 0x0 CALLDATALOAD PUSH1 0xE0 SHR DUP1 PUSH4 0x3A871CDD EQ PUSH2 0xB8 JUMPI DUP1 PUSH4 0x47E1DA2A EQ PUSH2 0xB3 JUMPI DUP1 PUSH4 0x4A58DB19 EQ PUSH2 0xAE JUMPI DUP1 PUSH4 0x4D44560D EQ PUSH2 0xA9 JUMPI DUP1 PUSH4 0x8DA5CB5B EQ PUSH2 0xA4 JUMPI DUP1 PUSH4 0xB0D691FE EQ PUSH2 0x9F JUMPI DUP1 PUSH4 0xB61D27F6 EQ PUSH2 0x9A JUMPI DUP1 PUSH4 0xC399EC88 EQ PUSH2 0x95 JUMPI DUP1 PUSH4 0xC4D66DE8 EQ PUSH2 0x90 JUMPI PUSH4 0xD087D288 SUB PUSH2 0xE JUMPI PUSH2 0x76A JUMP JUMPDEST PUSH2 0x67D JUMP JUMPDEST PUSH2 0x5E0 JUMP JUMPDEST PUSH2 0x57A JUMP JUMPDEST PUSH2 0x535 JUMP JUMPDEST PUSH2 0x508 JUMP JUMPDEST PUSH2 0x41B JUMP JUMPDEST PUSH2 0x38A JUMP JUMPDEST PUSH2 0x1D2 JUMP JUMPDEST CALLVALUE PUSH2 0x19C JUMPI PUSH1 0x3 NOT PUSH1 0x60 CALLDATASIZE DUP3 ADD SLT PUSH2 0x19C JUMPI PUSH1 0x4 CALLDATALOAD SWAP1 PUSH8 0xFFFFFFFFFFFFFFFF DUP3 GT PUSH2 0x19C JUMPI PUSH2 0x160 SWAP1 DUP3 CALLDATASIZE SUB ADD SLT PUSH2 0x19C JUMPI PUSH1 0x44 CALLDATALOAD PUSH32 0x0 PUSH1 0x1 PUSH1 0x1 PUSH1 0xA0 SHL SUB AND CALLER SUB PUSH2 0x165 JUMPI PUSH2 0x130 PUSH2 0x148 SWAP3 PUSH1 0x24 CALLDATALOAD SWAP1 PUSH1 0x4 ADD PUSH2 0xC61 JUMP JUMPDEST SWAP1 DUP1 PUSH2 0x14C JUMPI JUMPDEST POP PUSH1 0x40 MLOAD SWAP1 DUP2 MSTORE SWAP1 DUP2 SWAP1 PUSH1 0x20 DUP3 ADD SWAP1 JUMP JUMPDEST SUB SWAP1 RETURN JUMPDEST PUSH1 0x0 DUP1 DUP1 DUP1 SWAP4 CALLER GAS CALL POP PUSH2 0x15E PUSH2 0x875 JUMP JUMPDEST POP CODESIZE PUSH2 0x137 JUMP JUMPDEST PUSH1 0x40 MLOAD PUSH3 0x461BCD PUSH1 0xE5 SHL DUP2 MSTORE PUSH1 0x20 PUSH1 0x4 DUP3 ADD MSTORE PUSH1 0xF PUSH1 0x24 DUP3 ADD MSTORE PUSH15 0x13DB9B1E48115B9D1C9E541BDA5B9D PUSH1 0x8A SHL PUSH1 0x44 DUP3 ADD MSTORE PUSH1 0x64 SWAP1 REVERT JUMPDEST PUSH1 0x0 DUP1 REVERT JUMPDEST SWAP2 DUP2 PUSH1 0x1F DUP5 ADD SLT ISZERO PUSH2 0x19C JUMPI DUP3 CALLDATALOAD SWAP2 PUSH8 0xFFFFFFFFFFFFFFFF DUP4 GT PUSH2 0x19C JUMPI PUSH1 0x20 DUP1 DUP6 ADD SWAP5 DUP5 PUSH1 0x5 SHL ADD ADD GT PUSH2 0x19C JUMPI JUMP JUMPDEST CALLVALUE PUSH2 0x19C JUMPI PUSH1 0x60 CALLDATASIZE PUSH1 0x3 NOT ADD SLT PUSH2 0x19C JUMPI PUSH8 0xFFFFFFFFFFFFFFFF PUSH1 0x4 CALLDATALOAD DUP2 DUP2 GT PUSH2 0x19C JUMPI PUSH2 0x204 SWAP1 CALLDATASIZE SWAP1 PUSH1 0x4 ADD PUSH2 0x1A1 JUMP JUMPDEST PUSH1 0x24 SWAP3 SWAP2 SWAP3 CALLDATALOAD DUP3 DUP2 GT PUSH2 0x19C JUMPI PUSH2 0x21F SWAP1 CALLDATASIZE SWAP1 PUSH1 0x4 ADD PUSH2 0x1A1 JUMP JUMPDEST SWAP4 SWAP1 SWAP3 PUSH1 0x44 CALLDATALOAD SWAP1 DUP2 GT PUSH2 0x19C JUMPI PUSH2 0x23A SWAP1 CALLDATASIZE SWAP1 PUSH1 0x4 ADD PUSH2 0x1A1 JUMP JUMPDEST SWAP5 PUSH1 0x1 DUP1 PUSH1 0xA0 SHL SUB SWAP5 PUSH2 0x260 PUSH1 0x0 SWAP7 DUP1 DUP9 SLOAD PUSH1 0x10 SHR AND CALLER EQ SWAP1 DUP2 ISZERO PUSH2 0x353 JUMPI JUMPDEST POP PUSH2 0x8A5 JUMP JUMPDEST DUP2 DUP6 EQ DUP1 PUSH2 0x34A JUMPI JUMPDEST ISZERO PUSH2 0x313 JUMPI DUP6 JUMPDEST DUP6 DUP2 LT PUSH2 0x2B3 JUMPI POP SWAP2 PUSH32 0x1E4FE80DF8BC3D85D062E9E85B3835BEF083B2A76D829D04B27212B33F0E41B SWAP6 SWAP7 SWAP2 PUSH2 0x2AD SWAP4 PUSH1 0x40 MLOAD SWAP7 DUP8 SWAP7 DUP8 PUSH2 0xA31 JUMP JUMPDEST SUB SWAP1 LOG1 DUP1 RETURN JUMPDEST DUP7 DUP1 PUSH2 0x2C8 PUSH2 0x2C3 DUP5 DUP11 DUP11 PUSH2 0x907 JUMP JUMPDEST PUSH2 0x91C JUMP JUMPDEST PUSH2 0x2D3 DUP5 DUP8 DUP8 PUSH2 0x907 JUMP JUMPDEST CALLDATALOAD PUSH2 0x2DF DUP6 DUP14 DUP11 PUSH2 0x95C JUMP JUMPDEST SWAP2 SWAP1 PUSH2 0x2F0 PUSH1 0x40 MLOAD DUP1 SWAP5 DUP2 SWAP4 PUSH2 0x977 JUMP JUMPDEST SUB SWAP3 GAS CALL PUSH2 0x2FC PUSH2 0x875 JUMP JUMPDEST SWAP1 ISZERO PUSH2 0x30B JUMPI POP PUSH1 0x1 ADD PUSH2 0x270 JUMP JUMPDEST PUSH1 0x20 DUP2 MLOAD SWAP2 ADD REVERT JUMPDEST PUSH1 0x40 MLOAD PUSH3 0x461BCD PUSH1 0xE5 SHL DUP2 MSTORE PUSH1 0x20 PUSH1 0x4 DUP3 ADD MSTORE PUSH1 0xF PUSH1 0x24 DUP3 ADD MSTORE PUSH15 0x98CADCCEE8D040DAD2E6DAC2E8C6D PUSH1 0x8B SHL PUSH1 0x44 DUP3 ADD MSTORE PUSH1 0x64 SWAP1 REVERT JUMPDEST POP DUP7 DUP3 EQ PUSH2 0x269 JUMP JUMPDEST SWAP1 POP PUSH32 0x0 AND CALLER EQ CODESIZE PUSH2 0x25A JUMP JUMPDEST PUSH1 0x0 SWAP2 SUB SLT PUSH2 0x19C JUMPI JUMP JUMPDEST PUSH1 0x0 DUP1 PUSH1 0x3 NOT CALLDATASIZE ADD SLT PUSH2 0x407 JUMPI PUSH32 0x0 PUSH1 0x1 PUSH1 0x1 PUSH1 0xA0 SHL SUB AND DUP2 DUP2 EXTCODESIZE ISZERO PUSH2 0x407 JUMPI PUSH1 0x40 MLOAD PUSH4 0xB760FAF9 PUSH1 0xE0 SHL DUP2 MSTORE ADDRESS PUSH1 0x4 DUP3 ADD MSTORE SWAP2 DUP3 SWAP1 PUSH1 0x24 SWAP1 DUP3 SWAP1 CALLVALUE SWAP1 GAS CALL DUP1 ISZERO PUSH2 0x402 JUMPI PUSH2 0x3F6 JUMPI POP DUP1 RETURN JUMPDEST PUSH2 0x3FF SWAP1 PUSH2 0x81E JUMP JUMPDEST DUP1 RETURN JUMPDEST PUSH2 0xABB JUMP JUMPDEST DUP1 REVERT JUMPDEST PUSH1 0x1 PUSH1 0x1 PUSH1 0xA0 SHL SUB DUP2 AND SUB PUSH2 0x19C JUMPI JUMP JUMPDEST CALLVALUE PUSH2 0x19C JUMPI PUSH1 0x40 CALLDATASIZE PUSH1 0x3 NOT ADD SLT PUSH2 0x19C JUMPI PUSH1 0x4 CALLDATALOAD PUSH2 0x438 DUP2 PUSH2 0x40A JUMP JUMPDEST PUSH1 0x0 DUP1 SLOAD SWAP1 SWAP2 PUSH1 0x1 PUSH1 0x1 PUSH1 0xA0 SHL SUB SWAP2 PUSH1 0x10 SHR DUP3 AND CALLER SUB PUSH2 0x4D6 JUMPI DUP3 SWAP2 PUSH32 0x0 AND SWAP1 DUP2 EXTCODESIZE ISZERO PUSH2 0x4D2 JUMPI PUSH1 0x40 MLOAD PUSH4 0x40B850F PUSH1 0xE3 SHL DUP2 MSTORE PUSH1 0x1 PUSH1 0x1 PUSH1 0xA0 SHL SUB SWAP2 SWAP1 SWAP2 AND PUSH1 0x4 DUP3 ADD MSTORE PUSH1 0x24 DUP1 CALLDATALOAD SWAP1 DUP3 ADD MSTORE SWAP2 SWAP1 DUP3 SWAP1 PUSH1 0x44 SWAP1 DUP3 SWAP1 DUP5 SWAP1 GAS CALL DUP1 ISZERO PUSH2 0x402 JUMPI PUSH2 0x4BF JUMPI POP DUP1 RETURN JUMPDEST DUP1 PUSH2 0x4CC PUSH2 0x3FF SWAP3 PUSH2 0x81E JUMP JUMPDEST DUP1 PUSH2 0x37F JUMP JUMPDEST POP POP REVERT JUMPDEST PUSH1 0x40 MLOAD PUSH3 0x461BCD PUSH1 0xE5 SHL DUP2 MSTORE PUSH1 0x20 PUSH1 0x4 DUP3 ADD MSTORE PUSH1 0xA PUSH1 0x24 DUP3 ADD MSTORE PUSH10 0x27B7363C9037BBB732B9 PUSH1 0xB1 SHL PUSH1 0x44 DUP3 ADD MSTORE PUSH1 0x64 SWAP1 REVERT JUMPDEST CALLVALUE PUSH2 0x19C JUMPI PUSH1 0x0 CALLDATASIZE PUSH1 0x3 NOT ADD SLT PUSH2 0x19C JUMPI PUSH1 0x0 SLOAD PUSH1 0x40 MLOAD PUSH1 0x10 SWAP2 SWAP1 SWAP2 SHR PUSH1 0x1 PUSH1 0x1 PUSH1 0xA0 SHL SUB AND DUP2 MSTORE PUSH1 0x20 SWAP1 RETURN JUMPDEST CALLVALUE PUSH2 0x19C JUMPI PUSH1 0x0 CALLDATASIZE PUSH1 0x3 NOT ADD SLT PUSH2 0x19C JUMPI PUSH1 0x40 MLOAD PUSH32 0x0 PUSH1 0x1 PUSH1 0x1 PUSH1 0xA0 SHL SUB AND DUP2 MSTORE PUSH1 0x20 SWAP1 RETURN JUMPDEST CALLVALUE PUSH2 0x19C JUMPI PUSH1 0x60 CALLDATASIZE PUSH1 0x3 NOT ADD SLT PUSH2 0x19C JUMPI PUSH1 0x4 CALLDATALOAD PUSH2 0x597 DUP2 PUSH2 0x40A JUMP JUMPDEST PUSH1 0x44 CALLDATALOAD SWAP1 PUSH8 0xFFFFFFFFFFFFFFFF SWAP1 DUP2 DUP4 GT PUSH2 0x19C JUMPI CALLDATASIZE PUSH1 0x23 DUP5 ADD SLT ISZERO PUSH2 0x19C JUMPI DUP3 PUSH1 0x4 ADD CALLDATALOAD SWAP2 DUP3 GT PUSH2 0x19C JUMPI CALLDATASIZE PUSH1 0x24 DUP4 DUP6 ADD ADD GT PUSH2 0x19C JUMPI PUSH1 0x24 PUSH2 0x16 SWAP4 ADD SWAP1 PUSH1 0x24 CALLDATALOAD SWAP1 PUSH2 0xAC7 JUMP JUMPDEST CALLVALUE PUSH2 0x19C JUMPI PUSH1 0x0 CALLDATASIZE PUSH1 0x3 NOT ADD SLT PUSH2 0x19C JUMPI PUSH1 0x40 MLOAD PUSH4 0x70A08231 PUSH1 0xE0 SHL DUP2 MSTORE ADDRESS PUSH1 0x4 DUP3 ADD MSTORE PUSH1 0x20 DUP2 PUSH1 0x24 DUP2 PUSH32 0x0 PUSH1 0x1 PUSH1 0x1 PUSH1 0xA0 SHL SUB AND GAS STATICCALL DUP1 ISZERO PUSH2 0x402 JUMPI PUSH1 0x20 SWAP2 PUSH1 0x0 SWAP2 PUSH2 0x650 JUMPI JUMPDEST POP PUSH1 0x40 MLOAD SWAP1 DUP2 MSTORE RETURN JUMPDEST PUSH2 0x670 SWAP2 POP DUP3 RETURNDATASIZE DUP5 GT PUSH2 0x676 JUMPI JUMPDEST PUSH2 0x668 DUP2 DUP4 PUSH2 0x837 JUMP JUMPDEST DUP2 ADD SWAP1 PUSH2 0xB82 JUMP JUMPDEST CODESIZE PUSH2 0x647 JUMP JUMPDEST POP RETURNDATASIZE PUSH2 0x65E JUMP JUMPDEST CALLVALUE PUSH2 0x19C JUMPI PUSH1 0x20 CALLDATASIZE PUSH1 0x3 NOT ADD SLT PUSH2 0x19C JUMPI PUSH1 0x4 CALLDATALOAD PUSH2 0x69A DUP2 PUSH2 0x40A JUMP JUMPDEST PUSH2 0x6DE PUSH1 0x0 SLOAD SWAP2 PUSH2 0x6C2 PUSH1 0xFF DUP5 PUSH1 0x8 SHR AND ISZERO DUP1 SWAP5 DUP2 SWAP6 PUSH2 0x75C JUMPI JUMPDEST DUP2 ISZERO PUSH2 0x73C JUMPI JUMPDEST POP PUSH2 0xB91 JUMP JUMPDEST DUP3 PUSH2 0x6D5 PUSH1 0x1 PUSH1 0xFF NOT PUSH1 0x0 SLOAD AND OR PUSH1 0x0 SSTORE JUMP JUMPDEST PUSH2 0x723 JUMPI PUSH2 0xBF4 JUMP JUMPDEST PUSH2 0x6E4 JUMPI STOP JUMPDEST PUSH2 0x6F4 PUSH2 0xFF00 NOT PUSH1 0x0 SLOAD AND PUSH1 0x0 SSTORE JUMP JUMPDEST PUSH1 0x40 MLOAD PUSH1 0x1 DUP2 MSTORE PUSH32 0x7F26B83FF96E1F2B6A682F133852F6798A09C465DA95921460CEFB3847402498 SWAP1 PUSH1 0x20 SWAP1 LOG1 STOP JUMPDEST PUSH2 0x737 PUSH2 0x100 PUSH2 0xFF00 NOT PUSH1 0x0 SLOAD AND OR PUSH1 0x0 SSTORE JUMP JUMPDEST PUSH2 0xBF4 JUMP JUMPDEST ADDRESS EXTCODESIZE ISZERO SWAP2 POP DUP2 PUSH2 0x74E JUMPI JUMPDEST POP CODESIZE PUSH2 0x6BC JUMP JUMPDEST PUSH1 0x1 SWAP2 POP PUSH1 0xFF AND EQ CODESIZE PUSH2 0x747 JUMP JUMPDEST PUSH1 0x1 PUSH1 0xFF DUP3 AND LT SWAP2 POP PUSH2 0x6B5 JUMP JUMPDEST CALLVALUE PUSH2 0x19C JUMPI PUSH1 0x0 CALLDATASIZE PUSH1 0x3 NOT ADD SLT PUSH2 0x19C JUMPI PUSH1 0x40 MLOAD PUSH4 0x1AAB3F0D PUSH1 0xE1 SHL DUP2 MSTORE ADDRESS PUSH1 0x4 DUP3 ADD MSTORE PUSH1 0x0 PUSH1 0x24 DUP3 ADD MSTORE PUSH1 0x20 DUP2 PUSH1 0x44 DUP2 PUSH32 0x0 PUSH1 0x1 PUSH1 0x1 PUSH1 0xA0 SHL SUB AND GAS STATICCALL DUP1 ISZERO PUSH2 0x402 JUMPI PUSH2 0x148 SWAP2 PUSH1 0x0 SWAP2 PUSH2 0x7E9 JUMPI POP PUSH1 0x40 MLOAD SWAP1 DUP2 MSTORE SWAP1 DUP2 SWAP1 PUSH1 0x20 DUP3 ADD SWAP1 JUMP JUMPDEST PUSH2 0x802 SWAP2 POP PUSH1 0x20 RETURNDATASIZE PUSH1 0x20 GT PUSH2 0x676 JUMPI PUSH2 0x668 DUP2 DUP4 PUSH2 0x837 JUMP JUMPDEST CODESIZE PUSH2 0x137 JUMP JUMPDEST PUSH4 0x4E487B71 PUSH1 0xE0 SHL PUSH1 0x0 MSTORE PUSH1 0x41 PUSH1 0x4 MSTORE PUSH1 0x24 PUSH1 0x0 REVERT JUMPDEST PUSH8 0xFFFFFFFFFFFFFFFF DUP2 GT PUSH2 0x832 JUMPI PUSH1 0x40 MSTORE JUMP JUMPDEST PUSH2 0x808 JUMP JUMPDEST SWAP1 PUSH1 0x1F DUP1 NOT SWAP2 ADD AND DUP2 ADD SWAP1 DUP2 LT PUSH8 0xFFFFFFFFFFFFFFFF DUP3 GT OR PUSH2 0x832 JUMPI PUSH1 0x40 MSTORE JUMP JUMPDEST PUSH8 0xFFFFFFFFFFFFFFFF DUP2 GT PUSH2 0x832 JUMPI PUSH1 0x1F ADD PUSH1 0x1F NOT AND PUSH1 0x20 ADD SWAP1 JUMP JUMPDEST RETURNDATASIZE ISZERO PUSH2 0x8A0 JUMPI RETURNDATASIZE SWAP1 PUSH2 0x886 DUP3 PUSH2 0x859 JUMP JUMPDEST SWAP2 PUSH2 0x894 PUSH1 0x40 MLOAD SWAP4 DUP5 PUSH2 0x837 JUMP JUMPDEST DUP3 MSTORE RETURNDATASIZE PUSH1 0x0 PUSH1 0x20 DUP5 ADD RETURNDATACOPY JUMP JUMPDEST PUSH1 0x60 SWAP1 JUMP JUMPDEST ISZERO PUSH2 0x8AC JUMPI JUMP JUMPDEST PUSH1 0x40 MLOAD PUSH3 0x461BCD PUSH1 0xE5 SHL DUP2 MSTORE PUSH1 0x20 PUSH1 0x4 DUP3 ADD MSTORE PUSH1 0x18 PUSH1 0x24 DUP3 ADD MSTORE PUSH32 0x4F6E6C79206F776E6572206F7220456E747279506F696E740000000000000000 PUSH1 0x44 DUP3 ADD MSTORE PUSH1 0x64 SWAP1 REVERT JUMPDEST PUSH4 0x4E487B71 PUSH1 0xE0 SHL PUSH1 0x0 MSTORE PUSH1 0x32 PUSH1 0x4 MSTORE PUSH1 0x24 PUSH1 0x0 REVERT JUMPDEST SWAP2 SWAP1 DUP2 LT ISZERO PUSH2 0x917 JUMPI PUSH1 0x5 SHL ADD SWAP1 JUMP JUMPDEST PUSH2 0x8F1 JUMP JUMPDEST CALLDATALOAD PUSH2 0x926 DUP2 PUSH2 0x40A JUMP JUMPDEST SWAP1 JUMP JUMPDEST SWAP1 CALLDATALOAD SWAP1 PUSH1 0x1E NOT DUP2 CALLDATASIZE SUB ADD DUP3 SLT ISZERO PUSH2 0x19C JUMPI ADD DUP1 CALLDATALOAD SWAP1 PUSH8 0xFFFFFFFFFFFFFFFF DUP3 GT PUSH2 0x19C JUMPI PUSH1 0x20 ADD SWAP2 DUP2 CALLDATASIZE SUB DUP4 SGT PUSH2 0x19C JUMPI JUMP JUMPDEST SWAP1 DUP3 LT ISZERO PUSH2 0x917 JUMPI PUSH2 0x973 SWAP2 PUSH1 0x5 SHL DUP2 ADD SWAP1 PUSH2 0x929 JUMP JUMPDEST SWAP1 SWAP2 JUMP JUMPDEST SWAP1 DUP1 SWAP3 SWAP2 DUP3 CALLDATACOPY ADD PUSH1 0x0 DUP2 MSTORE SWAP1 JUMP JUMPDEST SWAP1 DUP1 PUSH1 0x20 SWAP4 SWAP3 DUP2 DUP5 MSTORE DUP5 DUP5 ADD CALLDATACOPY PUSH1 0x0 DUP3 DUP3 ADD DUP5 ADD MSTORE PUSH1 0x1F ADD PUSH1 0x1F NOT AND ADD ADD SWAP1 JUMP JUMPDEST SWAP1 DUP3 DUP2 DUP2 MSTORE PUSH1 0x20 DUP1 SWAP2 ADD SWAP4 PUSH1 0x20 DUP4 PUSH1 0x5 SHL DUP3 ADD ADD SWAP5 DUP5 PUSH1 0x0 SWAP3 JUMPDEST DUP6 DUP5 LT PUSH2 0x9D1 JUMPI POP POP POP POP POP POP POP SWAP1 JUMP JUMPDEST SWAP1 SWAP2 SWAP3 SWAP4 SWAP5 SWAP6 SWAP7 PUSH1 0x1F NOT DUP3 DUP3 SUB ADD DUP5 MSTORE DUP8 CALLDATALOAD PUSH1 0x1E NOT DUP5 CALLDATASIZE SUB ADD DUP2 SLT ISZERO PUSH2 0x19C JUMPI DUP4 ADD DUP7 DUP2 ADD SWAP2 SWAP1 CALLDATALOAD PUSH8 0xFFFFFFFFFFFFFFFF DUP2 GT PUSH2 0x19C JUMPI DUP1 CALLDATASIZE SUB DUP4 SGT PUSH2 0x19C JUMPI PUSH2 0xA20 DUP9 SWAP3 DUP4 SWAP3 PUSH1 0x1 SWAP6 PUSH2 0x985 JUMP JUMPDEST SWAP10 ADD SWAP5 ADD SWAP5 ADD SWAP3 SWAP6 SWAP5 SWAP4 SWAP2 SWAP1 PUSH2 0x9C0 JUMP JUMPDEST SWAP2 SWAP6 SWAP4 SWAP3 SWAP1 SWAP6 DUP1 PUSH1 0x60 DUP5 ADD PUSH1 0x60 DUP6 MSTORE MSTORE PUSH1 0x80 DUP4 ADD SWAP7 SWAP1 PUSH1 0x0 JUMPDEST DUP2 DUP2 LT PUSH2 0xA90 JUMPI POP POP POP DUP2 DUP7 SUB PUSH1 0x20 DUP4 ADD MSTORE DUP3 DUP7 MSTORE PUSH1 0x1 PUSH1 0x1 PUSH1 0xFB SHL SUB DUP4 GT PUSH2 0x19C JUMPI PUSH2 0x926 SWAP6 PUSH1 0x20 SWAP4 PUSH1 0x5 SHL DUP1 SWAP3 DUP6 DUP4 ADD CALLDATACOPY ADD SWAP1 PUSH1 0x40 DUP4 DUP3 DUP5 SUB ADD SWAP2 ADD MSTORE ADD SWAP2 PUSH2 0x9A6 JUMP JUMPDEST SWAP1 SWAP2 SWAP8 PUSH1 0x1 SWAP1 DUP10 CALLDATALOAD PUSH2 0xAA1 DUP2 PUSH2 0x40A JUMP JUMPDEST DUP3 DUP1 PUSH1 0xA0 SHL SUB AND DUP2 MSTORE PUSH1 0x20 DUP1 SWAP2 ADD SWAP10 ADD SWAP2 ADD SWAP2 SWAP1 SWAP2 PUSH2 0xA4A JUMP JUMPDEST PUSH1 0x40 MLOAD RETURNDATASIZE PUSH1 0x0 DUP3 RETURNDATACOPY RETURNDATASIZE SWAP1 REVERT JUMPDEST SWAP2 PUSH1 0x1 DUP1 PUSH1 0xA0 SHL SUB DUP1 PUSH1 0x0 SLOAD PUSH1 0x10 SHR AND CALLER EQ DUP1 ISZERO PUSH2 0xB57 JUMPI JUMPDEST PUSH2 0xAE9 SWAP1 PUSH2 0x8A5 JUMP JUMPDEST PUSH1 0x0 DUP1 PUSH1 0x40 MLOAD DUP8 DUP6 DUP3 CALLDATACOPY DUP1 DUP9 DUP2 ADD DUP4 DUP2 MSTORE SUB SWAP1 DUP7 DUP9 GAS CALL PUSH2 0xB08 PUSH2 0x875 JUMP JUMPDEST SWAP1 ISZERO PUSH2 0x30B JUMPI POP PUSH32 0xCAF938DE11C367272220BFD1D2BAA99CA46665E7BC4D85F00ADB51B90FE1FA9F SWAP4 SWAP3 SWAP2 PUSH2 0xB52 SWAP2 PUSH1 0x40 MLOAD SWAP5 DUP6 SWAP5 DUP6 MSTORE PUSH1 0x40 PUSH1 0x20 DUP7 ADD MSTORE AND SWAP6 PUSH1 0x40 DUP5 ADD SWAP2 PUSH2 0x985 JUMP JUMPDEST SUB SWAP1 LOG2 JUMP JUMPDEST POP CALLER PUSH32 0x0 DUP3 AND EQ PUSH2 0xAE0 JUMP JUMPDEST SWAP1 DUP2 PUSH1 0x20 SWAP2 SUB SLT PUSH2 0x19C JUMPI MLOAD SWAP1 JUMP JUMPDEST ISZERO PUSH2 0xB98 JUMPI JUMP JUMPDEST PUSH1 0x40 MLOAD PUSH3 0x461BCD PUSH1 0xE5 SHL DUP2 MSTORE PUSH1 0x20 PUSH1 0x4 DUP3 ADD MSTORE PUSH1 0x2E PUSH1 0x24 DUP3 ADD MSTORE PUSH32 0x496E697469616C697A61626C653A20636F6E747261637420697320616C726561 PUSH1 0x44 DUP3 ADD MSTORE PUSH14 0x191E481A5B9A5D1A585B1A5E9959 PUSH1 0x92 SHL PUSH1 0x64 DUP3 ADD MSTORE PUSH1 0x84 SWAP1 REVERT JUMPDEST PUSH1 0x1 PUSH1 0x1 PUSH1 0xA0 SHL SUB DUP2 AND ISZERO PUSH2 0xC2C JUMPI PUSH1 0x0 DUP1 SLOAD PUSH3 0x10000 PUSH1 0x1 PUSH1 0xB0 SHL SUB NOT AND PUSH1 0x10 SWAP3 SWAP1 SWAP3 SHL PUSH3 0x10000 PUSH1 0x1 PUSH1 0xB0 SHL SUB AND SWAP2 SWAP1 SWAP2 OR SWAP1 SSTORE JUMP JUMPDEST PUSH1 0x40 MLOAD PUSH3 0x461BCD PUSH1 0xE5 SHL DUP2 MSTORE PUSH1 0x20 PUSH1 0x4 DUP3 ADD MSTORE PUSH1 0xD PUSH1 0x24 DUP3 ADD MSTORE PUSH13 0x24B73B30B634B21037BBB732B9 PUSH1 0x99 SHL PUSH1 0x44 DUP3 ADD MSTORE PUSH1 0x64 SWAP1 REVERT JUMPDEST PUSH1 0x0 SWAP2 PUSH32 0x19457468657265756D205369676E6564204D6573736167653A0A333200000000 DUP4 MSTORE PUSH1 0x1C MSTORE PUSH2 0xC9D PUSH1 0x3C DUP4 KECCAK256 SWAP2 PUSH2 0x140 DUP2 ADD SWAP1 PUSH2 0x929 JUMP JUMPDEST PUSH2 0xCA9 DUP2 SWAP4 SWAP3 SWAP4 PUSH2 0x859 JUMP JUMPDEST SWAP3 PUSH2 0xCB7 PUSH1 0x40 MLOAD SWAP5 DUP6 PUSH2 0x837 JUMP JUMPDEST DUP2 DUP5 MSTORE CALLDATASIZE DUP3 DUP3 ADD GT PUSH2 0xD0C JUMPI PUSH1 0x20 DUP3 DUP6 SWAP5 SWAP4 DUP8 SWAP4 DUP4 PUSH2 0xCDB SWAP9 ADD CALLDATACOPY DUP5 ADD ADD MSTORE PUSH2 0xD10 JUMP JUMPDEST DUP2 SLOAD PUSH1 0x1 PUSH1 0x1 PUSH1 0xA0 SHL SUB SWAP1 PUSH1 0x10 SHR DUP2 AND DUP1 PUSH2 0xD02 JUMPI POP ADDRESS SWAP2 AND SUB PUSH2 0xCFC JUMPI SWAP1 JUMP JUMPDEST POP PUSH1 0x1 SWAP1 JUMP JUMPDEST SWAP2 AND SUB PUSH2 0xCFC JUMPI SWAP1 JUMP JUMPDEST DUP5 DUP1 REVERT JUMPDEST PUSH2 0x926 SWAP2 PUSH2 0xD1D SWAP2 PUSH2 0xD25 JUMP JUMPDEST SWAP2 SWAP1 SWAP2 PUSH2 0xD79 JUMP JUMPDEST SWAP1 PUSH1 0x41 DUP2 MLOAD EQ PUSH1 0x0 EQ PUSH2 0xD4F JUMPI PUSH2 0x973 SWAP2 PUSH1 0x20 DUP3 ADD MLOAD SWAP1 PUSH1 0x60 PUSH1 0x40 DUP5 ADD MLOAD SWAP4 ADD MLOAD PUSH1 0x0 BYTE SWAP1 PUSH2 0xE99 JUMP JUMPDEST POP POP PUSH1 0x0 SWAP1 PUSH1 0x2 SWAP1 JUMP JUMPDEST PUSH1 0x5 GT ISZERO PUSH2 0xD63 JUMPI JUMP JUMPDEST PUSH4 0x4E487B71 PUSH1 0xE0 SHL PUSH1 0x0 MSTORE PUSH1 0x21 PUSH1 0x4 MSTORE PUSH1 0x24 PUSH1 0x0 REVERT JUMPDEST PUSH2 0xD82 DUP2 PUSH2 0xD59 JUMP JUMPDEST DUP1 PUSH2 0xD8A JUMPI POP JUMP JUMPDEST PUSH2 0xD93 DUP2 PUSH2 0xD59 JUMP JUMPDEST PUSH1 0x1 DUP2 SUB PUSH2 0xDE0 JUMPI PUSH1 0x40 MLOAD PUSH3 0x461BCD PUSH1 0xE5 SHL DUP2 MSTORE PUSH1 0x20 PUSH1 0x4 DUP3 ADD MSTORE PUSH1 0x18 PUSH1 0x24 DUP3 ADD MSTORE PUSH32 0x45434453413A20696E76616C6964207369676E61747572650000000000000000 PUSH1 0x44 DUP3 ADD MSTORE PUSH1 0x64 SWAP1 REVERT JUMPDEST PUSH2 0xDE9 DUP2 PUSH2 0xD59 JUMP JUMPDEST PUSH1 0x2 DUP2 SUB PUSH2 0xE36 JUMPI PUSH1 0x40 MLOAD PUSH3 0x461BCD PUSH1 0xE5 SHL DUP2 MSTORE PUSH1 0x20 PUSH1 0x4 DUP3 ADD MSTORE PUSH1 0x1F PUSH1 0x24 DUP3 ADD MSTORE PUSH32 0x45434453413A20696E76616C6964207369676E6174757265206C656E67746800 PUSH1 0x44 DUP3 ADD MSTORE PUSH1 0x64 SWAP1 REVERT JUMPDEST DUP1 PUSH2 0xE42 PUSH1 0x3 SWAP3 PUSH2 0xD59 JUMP JUMPDEST EQ PUSH2 0xE49 JUMPI JUMP JUMPDEST PUSH1 0x40 MLOAD PUSH3 0x461BCD PUSH1 0xE5 SHL DUP2 MSTORE PUSH1 0x20 PUSH1 0x4 DUP3 ADD MSTORE PUSH1 0x22 PUSH1 0x24 DUP3 ADD MSTORE PUSH32 0x45434453413A20696E76616C6964207369676E6174757265202773272076616C PUSH1 0x44 DUP3 ADD MSTORE PUSH2 0x7565 PUSH1 0xF0 SHL PUSH1 0x64 DUP3 ADD MSTORE PUSH1 0x84 SWAP1 REVERT JUMPDEST SWAP3 SWAP2 SWAP1 PUSH32 0x7FFFFFFFFFFFFFFFFFFFFFFFFFFFFFFF5D576E7357A4501DDFE92F46681B20A0 DUP4 GT PUSH2 0xF09 JUMPI SWAP2 PUSH1 0x80 SWAP5 SWAP4 SWAP2 PUSH1 0xFF PUSH1 0x20 SWAP5 PUSH1 0x40 MLOAD SWAP5 DUP6 MSTORE AND DUP5 DUP5 ADD MSTORE PUSH1 0x40 DUP4 ADD MSTORE PUSH1 0x60 DUP3 ADD MSTORE PUSH1 0x0 SWAP4 DUP5 SWAP2 DUP3 DUP1 MSTORE PUSH1 0x1 GAS STATICCALL ISZERO PUSH2 0x402 JUMPI DUP2 MLOAD PUSH1 0x1 PUSH1 0x1 PUSH1 0xA0 SHL SUB DUP2 AND ISZERO PUSH2 0xCFC JUMPI SWAP2 SWAP1 JUMP JUMPDEST POP POP POP POP PUSH1 0x0 SWAP1 PUSH1 0x3 SWAP1 JUMP INVALID LOG2 PUSH5 0x6970667358 0x22 SLT KECCAK256 0xF7 PUSH5 0x6E0AC8BF9 0x5D SWAP9 LOG1 RETURNDATASIZE CALLCODE DIV 0xDA COINBASE 0xF6 CALLVALUE 0xAA 0xDA DUP14 0xB8 0xF EXP 0xD CALL SWAP12 0xAE NUMBER PUSH21 0xE03EE864736F6C6343000817003300000000000000 "},"methodIdentifiers":{"addDeposit()":"4a58db19","entryPoint()":"b0d691fe","execute(address,uint256,bytes)":"b61d27f6","executeBatch(address[],uint256[],bytes[])":"47e1da2a","getDeposit()":"c399ec88","getNonce()":"d087d288","initialize(address)":"c4d66de8","owner()":"8da5cb5b","validateUserOp((address,uint256,bytes,bytes,uint256,uint256,uint256,uint256,uint256,bytes,bytes),bytes32,uint256)":"3a871cdd","withdrawDepositTo(address,uint256)":"4d44560d"}}}}}